:020000040000FA
:06000000AAEF08F0120057
:06100000AAEF08F0120047
:02102A000000C4
:04102C002A0EF66E24
:10103000100EF76E000EF86E00010900F550656F96
:101040000900F550666F03E1656701D03DD00900E6
:10105000F550606F0900F550616F0900F550626F3F
:1010600009000900F550E96E0900F550EA6E090023
:1010700009000900F550636F0900F550646F09001D
:101080000900F6CF67F0F7CF68F0F8CF69F060C0DD
:10109000F6FF61C0F7FF62C0F8FF0001635302E191
:1010A000645307E00900F550EE6E6307F8E2640749
:1010B000F9D767C0F6FF68C0F7FF69C0F8FF000105
:0A10C0006507000E665BBFD7120043
:0610CA000F0EC110C16E03
:1010D0009494959095929682968494908B948C900B
:1010E0008C928450020B07E18450040B04E18B8442
:1010F0008C908C928B908450020B07E08450040BF0
:1011000004E18B948C908C828B908450020B07E1CD
:101110008450040B04E08B948C808C928B908450D0
:10112000020BDFE08450040BDCE08B948C908C92FB
:041130008B80D7D702
:0C113400000EF36E00EE00F0080E01D873
:101140001200EA6002D0EE6AFCD7F350E9601200A8
:04115000EE6AFCD770
:0C11540013EE00F023EE00F0F86A019C9E
:1011600016EC08F0B8EC08F065EC08F0FBD71200BC
:0211700012006B
:00000001FF
