:020000040000FA
:06000000ACEF08F0120055
:06100000ACEF08F0120045
:02102A000000C4
:04102C002A0EF66E24
:10103000100EF76E000EF86E00010900F550656F96
:101040000900F550666F03E1656701D03DD00900E6
:10105000F550606F0900F550616F0900F550626F3F
:1010600009000900F550E96E0900F550EA6E090023
:1010700009000900F550636F0900F550646F09001D
:101080000900F6CF67F0F7CF68F0F8CF69F060C0DD
:10109000F6FF61C0F7FF62C0F8FF0001635302E191
:1010A000645307E00900F550EE6E6307F8E2640749
:1010B000F9D767C0F6FF68C0F7FF69C0F8FF000105
:0A10C0006507000E665BBFD7120043
:0610CA00D9CFE6FFE1CFE3
:1010D000D9FFE65221D88B948C908C928B928B9076
:1010E0008450DF6E060EDF14E8407F0BDF6EDF50AA
:1010F000030A0EE0010A08E0030A03E08C928C90D8
:10110000EED78C828C9002D08C928C808B90E8D71A
:101110008C928C908B80E4D70F0EC110C16E94948A
:1011200095909592949294909282928492869288CD
:08113000968296849388120058
:08113800000EF36E00EE00F062
:10114000080E01D81200EA6002D0EE6AFCD7F35014
:08115000E9601200EE6AFCD711
:0811580013EE00F023EE00F09D
:10116000F86A019C16EC08F0BAEC08F065EC08F09F
:04117000FBD7120097
:02117400120067
:00000001FF
