:020000040000FA
:060000001AEF0AF01200E5
:061000001AEF0AF01200D5
:02102A000000C4
:04102C000F0EC112D0
:10103000959A9598939A939C939E959E959C939838
:10104000949C9594939093949396949E9392959652
:10105000838A8388818A818C818E838E838C818828
:10106000828C8384818081848186828E8182838642
:101070001200D9CFE6FFE1CFD9FF020EE1260A0E1A
:10108000106E10C00CF0FE0EDBCF07F028EC0AF05B
:101090000350DF6E0A0E106E10C00CF0FE0EDBCF98
:1010A00007F028EC0AF0010E07C0DBFFFD0EDB5055
:1010B000030A12E0010A0DE0030A08E0010A03E056
:1010C000818883860CD08188838609D08188839625
:1010D00006D08198838603D08198839600D0FE0E37
:1010E000DB50630804E2140EDF6EDE52DD6E010E8B
:1010F000DB50090A62E0010A58E00F0A4EE0010ADB
:1011000044E0030A3AE0010A30E0070A26E0010A57
:101110001CE0030A12E0010A08E0838A8388818ABE
:10112000818C818E838E839C50D0839A8398819A00
:10113000819C819E839E838C48D0838A8398819AE8
:10114000818C818E838E838C40D0839A8398818A10
:10115000819C819E838E839C38D0839A8398819AC8
:10116000819C818E838E839C30D0838A8398819AE0
:10117000818C818E839E839C28D0839A8388819AD8
:10118000819C818E839E839C20D0839A8388819AC0
:10119000819C819E839E839C18D0839A8398819A98
:1011A000818C818E838E838C10D0839A8398819AD0
:1011B000819C819E839E839C08D0839A8398819A88
:1011C000818C818E839E839C00D0DF50090A62E06F
:1011D000010A58E00F0A4EE0010A44E0030A3AE02F
:1011E000010A30E0070A26E0010A1CE0030A12E0C7
:1011F000010A08E0828C8384818081848186828ECA
:10120000819250D0829C8394819081948196829E19
:10121000818248D0828C8394819081848186828E61
:10122000818240D0829C8394818081948196828E39
:10123000819238D0829C8394819081948186828E21
:10124000819230D0828C8394819081848186829E29
:10125000819228D0829C8384819081948186829E11
:10126000819220D0829C8384819081948196829EF9
:10127000819218D0829C8394819081848186828E11
:10128000818210D0829C8394819081948196829EE9
:10129000819208D0829C8394819081848186829EF1
:1012A000819200D0020EE15C02E2E16AE552E16E59
:0812B000E552E7CFD9FF12005F
:0812B8002A0EF66E100EF76E0F
:1012C000000EF86E00010900F550656F0900F55039
:1012D000666F03E1656701D03DD00900F550606F8E
:1012E0000900F550616F0900F550626F09000900AF
:1012F000F550E96E0900F550EA6E09000900090091
:10130000F550636F0900F550646F09000900F6CFCE
:1013100067F0F7CF68F0F8CF69F060C0F6FF61C002
:10132000F7FF62C0F8FF0001635302E1645307E076
:101330000900F550EE6E6307F8E26407F9D767C05D
:10134000F6FF68C0F7FF69C0F8FF00016507000EEF
:06135000665BBFD712002E
:0A135600D9CFE6FFE1CFD9FF020E68
:10136000E1263DD8DE6ADD6ADECF10F0DDCF11F078
:10137000113404E210506308000E115425E3E66AAC
:10138000DFCFE6FF39EC08F0E552E552F00EE66EED
:10139000F3EC09F0E552F00EE66EF3EC09F0E552DD
:1013A000F00EE66EF3EC09F0E552F00EE66EF3ECAB
:1013B00009F0E552F00EE66EF3EC09F0E552DF2A93
:1013C000010E01E3DB2AD0D7CDD7020EE15C02E2A9
:1013D000E16AE552E16EE552E7CFD9FF12000F0E48
:0613E000C11216EF08F037
:0A13E600FF0EE350136EEF0E01D06E
:1013F000F30EE76EE72EFAEF09F00C0E126EE76AB5
:10140000E72E00EF0AF0122EFFEF09F0132EF8EF8F
:0414100009F01200CD
:0C141400000EF36E00EE00F0080E01D890
:101420001200EA6002D0EE6AFCD7F350E9601200C5
:04143000EE6AFCD78D
:0C14340013EE00F023EE00F0F86A0F9CAD
:101440005CEC09F036EC0AF0ABEC09F0FBD71200CB
:10145000036A080EE76ED890073603360C50035C1B
:0C14600002E3036E072AE72EF7D7120004
:02146C0012006C
:00000001FF
