:020000040000FA
:06000000ABEF0BF0120053
:06100000ABEF0BF0120043
:02102A000000C4
:04102C000F0EC112D0
:10103000959495969598959A959C959E839483966C
:10104000839E839C838A8388060EE66E74EC0BF085
:10105000E552060EE66E74EC0BF0E552060EE66EF7
:1010600074EC0BF0E55283860C0EE66E8BEC0BF005
:10107000E55283960C0EE66E8BEC0BF0E552060EF5
:10108000E66E74EC0BF0E55283860C0EE66E8BEC8C
:101090000BF0E55283960C0EE66E8BEC0BF0E552EE
:1010A000060EE66E74EC0BF0E55283860C0EE66ECF
:1010B0008BEC0BF0E55283960C0EE66E8BEC0BF08E
:1010C000E552839E839C838A839883860C0EE66E0A
:1010D0008BEC0BF0E55283960C0EE66E8BEC0BF06E
:1010E000E552280EE66E0ED8E552060EE66E0AD8D8
:1010F000E5520E0EE66E06D8E552010EE66E02D8F7
:10110000E5521200D9CFE6FFE1CFD9FF8394839651
:10111000FE0EDBA802D0838801D08398DBAA02D020
:10112000838A01D0839ADBAC02D0838C01D0839C6C
:10113000DBAE02D0838E01D0839E83860C0EE66EDA
:101140008BEC0BF0E55283960C0EE66E8BEC0BF0FD
:10115000E552FE0EDBA002D0838801D08398DBA28B
:1011600002D0838A01D0839ADBA402D0838C01D081
:10117000839CDBA602D0838E01D0839E83860C0ED7
:10118000E66E8BEC0BF0E55283960C0EE66E8BEC64
:101190000BF0E552E552E7CFD9FF1200D9CFE6FFB9
:1011A000E1CFD9FF83948396838EFE0EDBA802D015
:1011B000838801D08398DBAA02D0838A01D0839AE6
:1011C000DBAC02D0838C01D0839C83860C0EE66E50
:1011D0008BEC0BF0E55283960C0EE66E8BEC0BF06D
:1011E000E552FE0EDBA002D0838801D08398DBA2FB
:1011F00002D0838A01D0839ADBA402D0838C01D0F1
:10120000839CDBA602D0838E01D0839E83860C0E46
:10121000E66E8BEC0BF0E55283960C0EE66E8BECD3
:101220000BF0E552E552E7CFD9FF1200D9CFE6FF28
:10123000E1CFD9FFE652DF6AFD0EDB06000EF36E4A
:10124000FD0EDBCFF4FFF350F45C30E3FE0EDB5019
:10125000040A22E0070A17E0010A0CE0030A02E090
:10126000DF6A23D0FD0EDB50DF6EDFCFE6FF96DFB7
:10127000E5521BD0FD0EDB50400FDF6EDFCFE6FFE7
:101280008DDFE55212D0FD0EDB50140FDF6EDFCF85
:10129000E6FF84DFE55209D0FD0EDB50540FDF6E10
:1012A000DFCFE6FF7BDFE55200D001D0DF6AE552F9
:1012B000E552E7CFD9FF1200D9CFE6FFE1CFD9FF42
:1012C00083848396FE0EDBA802D0838801D08398A6
:1012D000DBAA02D0838A01D0839ADBAC02D0838C54
:1012E00001D0839CDBAE02D0838E01D0839E8386A7
:1012F0000C0EE66E8BEC0BF0E55283960C0EE66E50
:101300008BEC0BF0E552FE0EDBA002D0838801D0FF
:101310008398DBA202D0838A01D0839ADBA402D017
:10132000838C01D0839CDBA602D0838E01D0839E68
:1013300083860C0EE66E8BEC0BF0E55283960C0E5A
:10134000E66E8BEC0BF0E552E552E7CFD9FF1200C9
:10135000D9CFE6FFE1CFD9FF070EE126D9CFE9FFCC
:10136000DACFEAFF200EEE6EEE6AEE6AEE6AEE6A01
:10137000EE6AEE6AD9CFE6FFDACFE6FFFD0EDBCFED
:10138000E6FFFE0EDBCFE6FF1DEC0AF0E552E5526C
:10139000E552E552D9CFE6FFDACFE6FF0CD8E552A9
:1013A000E552070EE15C02E2E16AE552E16EE552C8
:1013B000E7CFD9FF1200D9CFE6FFE1CFD9FFFD0E6D
:1013C000DBCFE9FFFE0EDBCFEAFFEF5010E0FD0EB2
:1013D000DBCFE9FFFE0EDBCFEAFFEF50E66E6CDFFE
:1013E000E552FD0EDB2AFE0E01E3DB2AE8D7E552CB
:1013F000E7CFD9FF1200D9CFE6FFE1CFD9FFFD0E2D
:10140000DBCFF6FFFE0EDBCFF7FF0800F55011E053
:10141000FD0EDBCFF6FFFE0EDBCFF7FF0800F55029
:10142000E66E4ADFE552FD0EDB2AFE0E01E3DB2A03
:0A143000E6D7E552E7CFD9FF12001E
:06143A00D9CFE6FFDACF76
:10144000E6FFFA0EE3CFD9FFFB0EE3CFDAFFFD0E86
:10145000E35209E72D0EDE6EFC0EE31EE32AFD0EBD
:10146000D8B4E306E31EE652E652E652FD0EE1244E
:10147000E76EFF0EE220E46EE652F70EE3CFE6FFE2
:10148000F70EE3CFE6FF8DEC0AF0F90EE124E96EEA
:10149000FF0EE220EA6E7DEC0AF00AE17AEC0AF037
:1014A00009E17DEC0AF008E17AEC0AF007E108D0E6
:1014B00088EC0AF083EC0AF088EC0AF083EC0AF07E
:1014C00088EC0AF0DE6AF90EE126FF0EE222FF0E3A
:1014D000E3CFDAFFE552FF0EE3CFD9FFE552FC0E72
:1014E000E124E96EFF0EE220EA6EEECFF3FFEFCFCC
:1014F000F4FF1200EF380F0B1200EF500F0B02E158
:10150000EE52D8841200EF380F0B300FDE6E12004F
:10151000EE500F0B300FDE6E1200FC0EE3CFE9FF32
:10152000FD0EE3CFEAFF100EE66EEE6AEE6AEF6A9A
:10153000D890FD0EE336FE0EE336ED36ED36EF368F
:10154000FF0EE30609E0AEEC0AF0EE52AEEC0AF054
:10155000EE52AEEC0AF0EDD7E56E1200030EEF246A
:0E156000E8B6EF6E300EEF24E8BEEF6E000C22
:02156E00D9CFD3
:10157000E6FFE1CFD9FF110EE126D9CFE9FFDACF9F
:10158000EAFF200EEE6E420EEE6E6F0EEE6E6E0EE7
:10159000EE6E730EEE6E200EEE6E450EEE6E730E58
:1015A000EE6E740EEE6E750EEE6E640EEE6E6F0ED7
:1015B000EE6E730EEE6E210EEE6E200EEE6EEE6E81
:1015C000EE6A3BD8010EE66EE66E16EC09F0E552C7
:1015D000E552720EE66E170EE66EFBEC09F0E55270
:1015E000E552010EE66E020EE66E16EC09F0E552CB
:1015F000E552D9CFE6FFDACFE6FFDBEC09F0E552A2
:10160000E5528B84F00EE66E74EC0BF0E5528B9491
:10161000F00EE66E74EC0BF0E55284A202D08C82E0
:1016200001D08C92EED7110EE15C02E2E16AE55244
:10163000E16EE552E7CFD9FF12000F0EC110C16E67
:0A16400094949592968216EF08F03C
:06164A002A0EF66E100EE0
:10165000F76E000EF86E00010900F550656F090085
:10166000F550666F03E1656701D03DD00900F55084
:10167000606F0900F550616F0900F550626F090055
:101680000900F550E96E0900F550EA6E09000900FD
:101690000900F550636F0900F550646F09000900F7
:1016A000F6CF67F0F7CF68F0F8CF69F060C0F6FFCB
:1016B00061C0F7FF62C0F8FF0001635302E16453A9
:1016C00007E00900F550EE6E6307F8E26407F9D70A
:1016D00067C0F6FF68C0F7FF69C0F8FF0001650743
:0816E000000E665BBFD712008B
:0816E800FF0EE350036EEF0E4C
:1016F00001D0F30EE76EE72E7BEF0BF00C0E026EBF
:10170000E76AE72E81EF0BF0022E80EF0BF0032E3D
:0617100079EF0BF012005E
:0A171600FF0EE350036E480E01D0F1
:101720004C0EE76EE72EFED7E76AE72EFED7032EB4
:06173000F7D700001200D3
:0A173600000EF36E00EE00F0080E46
:1017400001D81200EA6002D0EE6AFCD7F350E960DB
:061750001200EE6AFCD756
:0A17560013EE00F023EE00F0F86A35
:10176000019C25EC0BF0C2EC0BF0B7EC0AF0FBD7B8
:02177000120065
:0E17720073656D7072617465632E636F6D2E0A
:0317800062720092
:02178400120051
:00000001FF
