:020000040000FA
:060000003BEF22F01200AC
:0600080004EF08F01200F5
:060018000CEF08F01200DD
:061000003BEF22F012009C
:061008001CEF08F01200CD
:0610180029EF0BF01200AD
:06102A000100004500007A
:08103000600000004600000012
:08103800DACFE4FFE2CFDAFF9A
:10104000E9CFE4FFEACFE4FFF6CFE4FFF7CFE4FF18
:10105000F5CFE4FFF3CFE4FFF4CFE4FFFACFE4FFF2
:1010600000EE00F0140EE80403E3EECFE4FFFBD73C
:1010700000EE14F0080EE80403E3EECFE4FFFBD724
:10108000E652D9CFE6FFE1CFD9FF030EE126F2A465
:10109000B1D2DF6ADE52010EDD6E000160516111D6
:1010A00002E1000E08D060C0E9FF61C0EAFFEF5026
:1010B000800B01E0010E000901E19AD2000EE66EFC
:1010C000E66A70EC21F0E552E552000166051CE18C
:1010D000666BBEEC1CF0E66AB8EC1DF0E552DC0E67
:1010E000E66E430EE66E20EC1EF0E552E552400E31
:1010F000E66EB8EC1DF0E552CB0EE66E430EE66EE2
:1011000020EC1EF0E552E55284A208D00A0EE66EED
:10111000F7EC21F0E552827084B2FED784A41BD094
:10112000640EE66EF7EC21F0E55282928282640E44
:10113000E66EF7EC21F0E5528292640EE66EF7EC73
:1011400021F0E5528282640EE66EF7EC21F0E55262
:10115000829284B4FED781B80BD0640EE66EF7ECB1
:1011600021F0E552DF5003E1010EDF6E01D0DF6AAE
:10117000DF5022E1010EDB501BE1BEEC1CF0E66A01
:10118000B8EC1DF0E552DC0EE66E430EE66E20EC88
:101190001EF0E552E552400EE66EB8EC1DF0E55249
:1011A000CB0EE66E430EE66E20EC1EF0E552E552E5
:1011B000DE52010EDD6EFBD1000EE66EE66A70ECCB
:1011C00021F0E552E552010EDB041BE1BEEC1CF000
:1011D000E66AB8EC1DF0E552C50EE66E430EE66E0B
:1011E00020EC1EF0E552E552090EE66E040EE66EA6
:1011F000E30EE66E14EC21F0E552E552E552010EE5
:10120000DB6A870EE66E0EEC22F0E552020EDB6A18
:10121000DBCF1CF0050EE76E1C18E8AE02D0E734F9
:1012200002D0E7501C5C14E2010EE66E49EC22F09D
:10123000E55275EC22F0000908E165EC22F0F3CFED
:1012400099F0F4CF9AF07DEC22F0020EDB2AE0D781
:1012500099C008F09AC009F052EC1AF007C01CF0CF
:1012600008C01DF009C01EF00AC01FF0A0C00CF09D
:10127000A1C00DF0A2C00EF0A3C00FF0B8EC1AF0A0
:1012800007C09BF008C09CF009C09DF00AC09EF00A
:101290000C6A0D6AC80E0E6E420E0F6EB8EC1AF094
:1012A00007C01CF008C01DF009C01EF00AC01FF0E6
:1012B0000C6A0D6A480E0E6E420E0F6E25EC1BF086
:1012C000E2EC1BF009C09FF0050EE66EB8EC1DF0D5
:1012D000E55200019F51E66EE66A42EC1EF0E552CF
:1012E000E552070EE66EB8EC1DF0E552010EDB0488
:1012F00008E1C30EE66E430EE66E20EC1EF0E552EA
:10130000E552AF0EE66E0EEC22F0E552020EDB6AFD
:10131000DBCF1CF0050EE76E1C18E8AE02D0E734F8
:1013200002D0E7501C5C14E2010EE66E49EC22F09C
:10133000E55275EC22F0000908E165EC22F0F3CFEC
:1013400099F0F4CF9AF07DEC22F0020EDB2AE0D780
:1013500099C008F09AC009F052EC1AF007C01CF0CE
:1013600008C01DF009C01EF00AC01FF0A0C00CF09C
:10137000A1C00DF0A2C00EF0A3C00FF0B8EC1AF09F
:1013800007C09BF008C09CF009C09DF00AC09EF009
:10139000090EE66EB8EC1DF0E5524C0EE66E6CECF4
:1013A0001DF0E5524D0EE66E6CEC1DF0E5523A0E66
:1013B000E66E6CEC1DF0E5529BC007F09CC008F097
:1013C0009DC009F09EC00AF009EC1CF008C01CF09A
:1013D00009C01DF008C0E6FF09C0E6FF42EC1EF0A0
:1013E000E552E552C10EE66E430EE66E20EC1EF0AD
:1013F000E552E5520C6A0D6A200E0E6E410E0F6E1C
:101400009BC007F09CC008F09DC009F09EC00AF088
:10141000B8EC1AF009EC1CF008C01CF009C01DF073
:101420000A0E0D6E0E6ABCEC1BF004C01CF005C069
:101430001DF004C0E6FF05C0E6FF42EC1EF0E552D9
:10144000E552BF0EE66E430EE66E20EC1EF0E5524E
:10145000E552A70EE66E0EEC22F0E552020EDB6AB4
:10146000DBCF1CF0050EE76E1C18E8AE02D0E734A7
:1014700002D0E7501C5C14E2010EE66E49EC22F04B
:10148000E55275EC22F0000908E165EC22F0F3CF9B
:1014900099F0F4CF9AF07DEC22F0020EDB2AE0D72F
:1014A00099C008F09AC009F052EC1AF007C01CF07D
:1014B00008C01DF009C01EF00AC01FF0A0C00CF04B
:1014C000A1C00DF0A2C00EF0A3C00FF0B8EC1AF04E
:1014D00007C09BF008C09CF009C09DF00AC09EF0B8
:1014E000400EE66EB8EC1DF0E552BA0EE66E430E05
:1014F000E66E20EC1EF0E552E552440EE66EB8ECC6
:101500001DF0E5529BC007F09CC008F09DC009F09B
:101510009EC00AF009EC1CF008C01CF009C01DF0C8
:1015200008C0E6FF09C0E6FF42EC1EF0E552E552B6
:10153000450EE66EB8EC1DF0E552C10EE66E430EA8
:10154000E66E20EC1EF0E552E5520C6A0D6A200EA4
:101550000E6E410E0F6E9BC007F09CC008F09DC040
:1015600009F09EC00AF0B8EC1AF009EC1CF008C0B3
:101570001CF009C01DF00A0E0D6E0E6ABCEC1BF0CB
:1015800004C01CF005C01DF004C0E6FF05C0E6FF66
:1015900042EC1EF0E552E552010EDB0408E1BF0EFD
:1015A000E66E430EE66E20EC1EF0E552E5528284B4
:1015B00083908392640EE66EF7EC21F0E5528294FC
:1015C00083808392640EE66EF7EC21F0E5528294FC
:1015D00083908382640EE66EF7EC21F0E552E66AB2
:1015E00018EC12F0E66E96EC1EF0E552E55255D579
:1015F000F29402D084EC12F0030EE15C02E2E16AA4
:10160000E552E16EE552E7CFD9FFE55200EE1BF05F
:10161000080EE80403E3E5CFEDFFFBD700EE13F07F
:10162000140EE80403E3E5CFEDFFFBD7E5CFFAFFA7
:10163000E5CFF4FFE5CFF3FFE5CFF5FFE5CFF7FF0B
:10164000E5CFF6FFE5CFEAFFE5CFE9FFE5CFDAFF2B
:101650001100D8CFE4FFE0CFE4FFE46EDACFE4FF7F
:10166000E652E552E5CFDAFFE550E5CFE0FFE5CF02
:10167000D8FF100004D839EC1AF02FD8FED70F0E7F
:10168000C112928414D82CEC12F0D09EF29EF28CEF
:10169000970EE66E8CEC21F0E552000EE66EE66ADF
:1016A00070EC21F0E552E552F184F294120082943C
:1016B000839083929494959095929492949096822C
:1016C0009684938875EC1EF0BEEC1CF00001606BF4
:1016D000616B626B636B646B1200D9CFE6FFE1CF85
:1016E000D9FFE6520001996B9A6B9B6B9C6B9D6BCB
:1016F0009E6B9F6B0A0EA06F280EA16FA00EA26FAB
:101700003B0EA36F645102E05DEC11F0200E00016E
:10171000A65D02E257EF11F06D50020B02E057EFA9
:1017200011F000016051611102E1000E08D060C0AB
:10173000E9FF61C0EAFFEF50800B01E0010E0009F4
:1017400002E057EF11F0DF6A66510EE1BEEC1CF0CB
:101750000001010E666FE66E20EC1DF0E5528294EA
:10176000839083928292829005010051780A02E16F
:1017700015EF11F00A0A02E1D2EF10F0030A02E1BC
:101780007DEF10F0010A02E13BEF10F01F0A02E1C9
:10179000E9EF0FF0010A01E1DCD3340A01E12BD3B8
:1017A0003E0A01E18ED2340A01E1F3D1170A01E1C8
:1017B0008FD1010A01E130D17A0A01E122D11D0A5B
:1017C00001E103D1010A01E1E4D03F0A01E1C5D002
:1017D000010A01E1A6D00B0A01E187D0010A69E004
:1017E000020A44E0240A3AE01A0A30E0240A23E01C
:1017F000070A16E0010A09E000016251631102E0E4
:1018000025EF11F0000E2DEF11F00001646B0501C2
:10181000015103E0828444EF11F0829444EF11F00F
:101820000001646B0501015103E0838044EF11F076
:10183000839044EF11F00001646B0501015103E056
:10184000838244EF11F0839244EF11F0015103E0E1
:10185000828244EF11F0829244EF11F0015103E0D3
:10186000828044EF11F0829044EF11F0160E406F29
:1018700081A80AD0010E416F000EE66EE66A70EC98
:1018800021F0E552E55201D0416B00016251631134
:1018900002E1000E08D062C0E9FF63C0EAFFEF502A
:1018A000800B01E0010E000902E044EF11F031EF7E
:1018B00011F0140E406F84A203D0010E416F01D0CD
:1018C000416B00016251631102E1000E08D062C059
:1018D000E9FF63C0EAFFEF50800B01E0010E000951
:1018E00002E044EF11F031EF11F0150E406F84A4C7
:1018F00003D0010E416F01D0416B000162516311B1
:1019000002E1000E08D062C0E9FF63C0EAFFEF50B9
:10191000800B01E0010E000902E044EF11F031EF0D
:1019200011F01E0E406F80A203D0010E416F01D056
:10193000416B00016251631102E1000E08D062C0E8
:10194000E9FF63C0EAFFEF50800B01E0010E0009E0
:1019500002E044EF11F031EF11F01F0E406F80A450
:1019600003D0010E416F01D0416B00016251631140
:1019700002E1000E08D062C0E9FF63C0EAFFEF5049
:10198000800B01E0010E000902E044EF11F031EF9D
:1019900011F0200E406F80A603D0010E416F01D0E0
:1019A000416B00016251631102E1000E08D062C078
:1019B000E9FF63C0EAFFEF50800B01E0010E000970
:1019C00002E044EF11F031EF11F0210E406F80A8DA
:1019D00003D0010E416F01D0416B000162516311D0
:1019E00002E1000E08D062C0E9FF63C0EAFFEF50D9
:1019F000800B01E0010E000902E044EF11F031EF2D
:101A000011F0E66A01C5E6FF96EC1EF0E552E552DC
:101A10000001656B44EF11F00001655111E1010E09
:101A2000656FBEEC1CF0400EE66EB8EC1DF0E552A2
:101A3000800EE66E000EE66E00EC1EF0E552E552FA
:101A4000DF6AE66AB8EC1DF0E552DF28E96EEA6A63
:101A5000E9BEEA68000EE926050EEA22EF5019E019
:101A6000DF28E96EEA6AE9BEEA68000EE926050E9B
:101A7000EA22EF50E66EDFCFE9FFEA6AE9BEEA68E4
:101A8000670EE926000EEA22E552E750EF6EDF2AE4
:101A9000DCD7DFCF14F0100EE76E1418E8AE02D0DA
:101AA000E73402D0E750145C0DE2DFCFE9FFEA6AC9
:101AB000E9BEEA68670EE926000EEA22200EEF6E04
:101AC000DF2AE7D70001776B670EE66E000E5BD06A
:101AD0000001655110E1010E656FBEEC1CF0E66A75
:101AE000B8EC1DF0E552670EE66E000EE66E00ECF7
:101AF0001EF0E552E552DF6A400EE66EB8EC1DF0CE
:101B0000E552DF28E96EEA6AE9BEEA68000EE926D6
:101B1000050EEA22EF5019E0DF28E96EEA6AE9BE15
:101B2000EA68000EE926050EEA22EF50E66EDFCFE6
:101B3000E9FFEA6AE9BEEA68800EE926000EEA22B9
:101B4000E552E750EF6EDF2ADCD7DFCF14F0100E3E
:101B5000E76E1418E8AE02D0E73402D0E750145C08
:101B60000DE2DFCFE9FFEA6AE9BEEA68800EE92606
:101B7000000EEA22200EEF6EDF2AE7D70001906BFD
:101B8000800EE66E000EE66E00EC1EF0E552E552A9
:101B90007BD3090EE66E040EE66EE30EE66E14ECE1
:101BA00021F0E552E552E5520501500E406F870ED7
:101BB000E66E0EEC22F0E552DF6ADFCF14F0050E80
:101BC000E76E1418E8AE02D0E73402D0E750145C98
:101BD00013E2010EE66E49EC22F0E55275EC22F0BC
:101BE000000908E165EC22F0F3CF99F0F4CF9AF008
:101BF0007DEC22F0DF2AE1D799C008F09AC009F005
:101C000052EC1AF007C014F008C015F009C016F025
:101C10000AC017F0A0C00CF0A1C00DF0A2C00EF0D9
:101C2000A3C00FF0B8EC1AF007C09BF008C09CF0FE
:101C300009C09DF00AC09EF00C6A0D6AC80E0E6EB7
:101C4000420E0F6EB8EC1AF007C014F008C015F081
:101C500009C016F00AC017F00C6A0D6A480E0E6E25
:101C6000420E0F6E25EC1BF0E2EC1BF009C09FF05A
:101C700000010950156A15C041F50950146E156A26
:101C80000D6A010E0E6E09C008F015C009F0BCEC1B
:101C90001BF004C014F005C015F004C042F50001AB
:101CA0006251631102E1000E08D062C0E9FF63C017
:101CB000EAFFEF50800B01E0010E000901E046D180
:101CC00032D1090EE66E040EE66EE30EE66E14ECFB
:101CD00021F0E552E552E5520501640E406FA70E72
:101CE000E66E0EEC22F0E552DF6ADFCF14F0050E4F
:101CF000E76E1418E8AE02D0E73402D0E750145C67
:101D000013E2010EE66E49EC22F0E55275EC22F08A
:101D1000000908E165EC22F0F3CF99F0F4CF9AF0D6
:101D20007DEC22F0DF2AE1D799C008F09AC009F0D3
:101D300052EC1AF007C018F008C019F009C01AF0E8
:101D40000AC01BF0A0C00CF0A1C00DF0A2C00EF0A4
:101D5000A3C00FF0B8EC1AF007C014F008C015F0DB
:101D600009C016F00AC017F00C6A0D6A200E0E6E3C
:101D7000410E0F6EB8EC1AF007C09BF008C09CF043
:101D800009C09DF00AC09EF00C6A0D6A800E0E6EAE
:101D9000430E0F6E65EC1AF0E2EC1BF009C041F542
:101DA0009BC007F09CC008F09DC009F09EC00AF0DF
:101DB00009EC1CF008C014F009C015F00D6A010E02
:101DC0000E6EBCEC1BF004C014F005C015F004C08E
:101DD00042F500016251631102E1000E08D062C0B9
:101DE000E9FF63C0EAFFEF50800B01E0010E00093C
:101DF00001E0ACD098D0090EE66E040EE66EE30E5C
:101E0000E66E14EC21F0E552E552E55205015A0E5A
:101E1000406FAF0EE66E0EEC22F0E552DF6ADFCFC8
:101E200014F0050EE76E1418E8AE02D0E73402D0C5
:101E3000E750145C13E2010EE66E49EC22F0E55225
:101E400075EC22F0000908E165EC22F0F3CF99F07F
:101E5000F4CF9AF07DEC22F0DF2AE1D799C008F0A8
:101E60009AC009F052EC1AF007C018F008C019F037
:101E700009C01AF00AC01BF0A0C00CF0A1C00DF000
:101E8000A2C00EF0A3C00FF0B8EC1AF007C014F017
:101E900008C015F009C016F00AC017F00C6A0D6AE8
:101EA000200E0E6E410E0F6EB8EC1AF007C09BF0BC
:101EB00008C09CF009C09DF00AC09EF00C6A0D6A33
:101EC000800E0E6E430E0F6E65EC1AF0E2EC1BF006
:101ED00009C041F59BC007F09CC008F09DC009F007
:101EE0009EC00AF009EC1CF008C014F009C015F0FF
:101EF0000D6A010E0E6EBCEC1BF004C014F005C0A0
:101F000015F004C042F500016251631102E1000EB8
:101F100008D062C0E9FF63C0EAFFEF50800B01E028
:101F2000010E000913E1400EE66E400EE66E050E4E
:101F3000E66E010EE66EE66EAEEC19F0146E050E5E
:101F4000E15E1450F3CF62F0F4CF63F00F0EC112D4
:101F50009BD16E0E406F010EDF6EDFCF14F03D0E91
:101F6000E76E1418E8AE02D0E73402D0E750145CF4
:101F70001EE27AEC22F0DFCF14F0156A14BE156869
:101F800014C0E6FF15C0E6FFA8EC21F0E552E552CB
:101F9000E66EDFCFE9FFEA6AE9BEEA68400EE926AD
:101FA000050EEA22E552E750EF6EDF2AD6D7000190
:101FB0006251631102E1000E08D062C0E9FF63C004
:101FC000EAFFEF50800B01E0010E000901E05CD157
:101FD00048D16F0E406F010EDF6EDFCF14F03D0E63
:101FE000E76E1418E8AE02D0E73402D0E750145C74
:101FF0001FE27AEC22F03B0EDF24146E156A14BE49
:10200000156814C0E6FF15C0E6FFA8EC21F0E55204
:10201000E552E66EDFCFE9FFEA6AE9BEEA68400E04
:10202000E926050EEA22E552E750EF6EDF2AD5D702
:1020300000016251631102E1000E08D062C0E9FFA5
:1020400063C0EAFFEF50800B01E0010E000913E1CD
:10205000400EE66E400EE66E050EE66E010EE66E72
:10206000E66EAEEC19F0146E050EE15E1450F3CF7F
:1020700062F0F4CF63F00501700E406F010EDF6E69
:10208000DFCF14F03D0EE76E1418E8AE02D0E7344F
:1020900002D0E750145C1FE27AEC22F0770EDF24C6
:1020A000146E156A14BE156814C0E6FF15C0E6FF6D
:1020B000A8EC21F0E552E552E66EDFCFE9FFEA6ACF
:1020C000E9BEEA68400EE926050EEA22E552E7502D
:1020D000EF6EDF2AD5D700016251631102E1000ED5
:1020E00008D062C0E9FF63C0EAFFEF50800B01E057
:1020F000010E000901E0C8D0B4D0710E406F010E8E
:10210000DF6EDFCF14F03D0EE76E1418E8AE02D09C
:10211000E73402D0E750145C22E27AEC22F0DFCF01
:1021200014F0156A14BE1568B30E1426000E15229D
:1021300014C0E6FF15C0E6FFA8EC21F0E552E55219
:10214000E66EDFCFE9FFEA6AE9BEEA68400EE926FB
:10215000050EEA22E552E750EF6EDF2AD2D70001E2
:102160006251631102E1000E08D062C0E9FF63C052
:10217000EAFFEF50800B01E0010E000913E1400E71
:10218000E66E400EE66E050EE66E010EE66EE66E3B
:10219000AEEC19F0146E050EE15E1450F3CF62F050
:1021A000F4CF63F00501720E406FDF6ADFCF14F0E9
:1021B0000F0EE76E1418E8AE02D0E73402D0E750F5
:1021C000145C22E27AEC22F0DFCF14F0156A14BE20
:1021D0001568EF0E1426000E152214C0E6FF15C078
:1021E000E6FFA8EC21F0E552E552E66EDFCFE9FF0D
:1021F000EA6AE9BEEA68400EE926050EEA22E552DF
:10220000E750EF6EDF2AD2D700016251631102E17D
:10221000000E08D062C0E9FF63C0EAFFEF50800BF8
:1022200001E0010E000930E11CD07AEC22F001C57A
:10223000E6FF05010229E66EE66A4BEC21F0E55265
:10224000E552E5527AEC22F01FD062C0E9FF63C08C
:10225000EAFFEF50800B01E0010E000915E10501D6
:102260004069400EE66E400EE66E050EE66E010E0B
:10227000E66EE66EAEEC19F0146E050EE15E1450DB
:10228000F3CF62F0F4CF63F0400EE66E000EE66E20
:10229000050EE66EE66A010EE66EAEEC19F0146EFF
:1022A000050EE15E1450F3CF60F0F4CF61F0E5521B
:1022B000E552E7CFD9FF120012000001A451A51189
:1022C00004E1100EA46F270EA56FA407000EA55BF6
:1022D0006DA207D0A451A5112EE1837083B213D053
:1022E00027D00001A65102E1839022D0A60502E189
:1022F000838009D0020EA65D02E1838019D0040E0E
:10230000A65D03E1839083821200100EA65D06E1B4
:102310000001A451A5110FE183700AD0200EA65D23
:102320000AE10001A451A51106E1837083A002D047
:102330008392120083821200120012001200120017
:10234000FBEF1FF012001E0EE66E010EE66E0AECA9
:1023500019F0E552E552400EE66E000EE66E050EEF
:10236000E66EE66A010EE66EAEEC19F0146E050E2E
:10237000E15E1450F3CF60F0F4CF61F012006D8491
:102380000001080ED86F070ED96FD807000ED95B71
:10239000D851D911FAE16D941200D9CFE6FFE1CFFF
:1023A000D9FFFD0EDBCF08F0FE0EDBCF09F0010EEA
:1023B000081801E1095033E0E868081802E1E8680C
:1023C00009182BE0030E081801E1095024E0040E5F
:1023D000081801E109501DE0020E081801E109503A
:1023E00016E0170E081801E109500FE0160E081844
:1023F00001E1095008E0150E081801E1095001E05B
:1024000010D0A1DF0FD09EDF0DD09ADF0BD096DF6A
:1024100009D092DF07D091DF05D091DF03D0000013
:1024200001D000D0010E00D0E552E7CFD9FF120055
:10243000D9CFE6FFE1CFD9FFE652DF6A80B2DF8075
:1024400080B4DF8280B6DF8480B8DF86DF50E5525B
:08245000E552E7CFD9FF1200AD
:08245800D9CFE6FFE1CFD9FF67
:10246000E6526A6A686A160E6F6E9F0E6B6E7B0E7E
:10247000696E6D8C6D9C6E6A000EE66EE66AE66AA9
:10248000710EE66E0F0EE66EC3EC21F0146E050EB3
:10249000E15E1450DF6ADF50146E156A080E145C9A
:1024A000000E155810E2DF50040DF3CFE9FFF4CF12
:1024B000EAFF000EE926040EEA22EE6AEE6AEE6AF0
:1024C000EE6ADF2AE8D7160E706E68A60CD0030EEF
:1024D000E66E680EE66E0F0EE66E1DEC1AF0E55223
:1024E000E552E552F2D70001B96BBE6BBF6BC06B12
:1024F0006D98080EB16F040EB26FA76BA66BE55214
:10250000E552E7CFD9FF1200D9CFE6FFE1CFD9FFDF
:10251000E6520001A60507E16DBA05D0686A698038
:102520006988020EA66F6850040B0FE06950040B17
:102530000CE0020EE66E680EE66E0F0EE66E1DEC07
:102540001AF0E552E552E552E6D86DB270D0685007
:10255000010B1BE06950010B18E07EDF0001040E47
:10256000A66F0401200E026F040E036F080E016FA8
:10257000006B8C0E0013E66A680EE66E0F0EE66EB8
:102580001DEC1AF0E552E552E5526850100B0FE0D1
:102590006950100B0CE0A3D8040EE66E680EE66ED0
:1025A0000F0EE66E1DEC1AF0E552E552E55268504A
:1025B000400B1DE06950400B1AE0010EE66EE66A22
:1025C000000EE66EE66A020EE66EE66ACDEC11F0EB
:1025D000146E060EE15E1450060EE66E680EE66E90
:1025E0000F0EE66E1DEC1AF0E552E552E55268500A
:1025F000200B04E06950200B01E04ED86850020B1C
:1026000012E06950020B0FE0010EE66EE66A000E62
:10261000E66EE66AE668E668CDEC11F0146E060E2A
:10262000E15E14506A6A040E0001A65D02E2A19AFE
:102630002ED069A62BD0DF6A040EDF5C27E268A6E5
:1026400025D06CCFC6F0030EE66E680EE66E0F0E58
:10265000E66E1DEC1AF0E552E552E552780E0001E7
:10266000C61502E177D810D0000EE66EE66AC60EF7
:10267000E66E000EE66E010EE66EE66ACDEC11F037
:10268000146E060EE15E1450DF2AD6D7A19AE552E9
:10269000E552E7CFD9FF120070A015D0A9C0E9FF1D
:1026A000AAC0EAFFEF5080080DE1B1C0E9FFB2C057
:1026B000EAFFEF50840806E1A9C0E9FFAAC0EAFFDB
:1026C0008C0EEF6E7090050EE66E680EE66E0F0EC5
:1026D000E66E1DEC1AF0E552E552E55212006984EF
:1026E000040EE66E680EE66E0F0EE66E1DEC1AF036
:1026F000E552E552E5526D82000EE66EE66AE66E40
:10270000E66A040EE66EE66ACDEC11F0146E060E73
:10271000E15E14501200000EE66EE66AE66EE66AAE
:10272000030EE66EE66ACDEC11F0146E060EE15E65
:1027300014506D92699468A40CD0020EE66E680E77
:10274000E66E0F0EE66E1DEC1AF0E552E552E5520C
:10275000F2D71200D9CFE6FFE1CFD9FFE652FD0E46
:102760000001C6155AE17E0EC615E8407F0B040D28
:10277000F3CFA9F0F4CFAAF0000EA927040EAA23E4
:10278000A9C0ABF0AAC0ACF0AB75A9C0E9FFAAC064
:10279000EAFFEF503C0BE842E8420D083CE1A9C0DB
:1027A000E9FFAAC0EAFF020EE926000EEA22EECFF8
:1027B00014F0EFCF15F0280E14182BE1040E1518A5
:1027C00028E1A9C0E9FFAAC0EAFF020EE926000E2F
:1027D000EA22200EEE6E040EED6EDF6ADF50146EFC
:1027E000156A080E145C000E155813E2DF50EA6AF1
:1027F000280FE96E040EEA22EF50E66EDF50EA6A17
:10280000200FE96E040EEA22E552E750EF6EDF2A50
:10281000E5D70DD807D02ED805D0FD0EC615040873
:1028200001E14ED8E552E552E7CFD9FF1200B1C021
:10283000E9FFB2C0EAFFEF50800B05E0B1C0E9FF4D
:10284000B2C0EAFFEF6A0001B56BB66BBA6BBB6B47
:10285000B96BB2D8000EE66EE66AE66EE66A170E4F
:10286000E66EE66ACDEC11F0146E060EE15E1450D1
:1028700074EF16F0020E0001B65D02E1CFEF17F023
:1028800069D80001C7511AE1ABC0E9FFACC0EAFF4B
:10289000EE52080EEF6EABC0E9FFACC0EAFF020ECD
:1028A000E926000EEA22200EEE6E040EED6EABC09D
:1028B000E9FFACC0EAFF8C0EEF6E1200C76B12008E
:1028C000D9CFE6FFE1CFD9FFE652B1C0E9FFB2C0F0
:1028D000EAFFEF50400B01E0010EDF6E0001B17521
:1028E000080EA65D09E122C46EFF6E50000802E2E8
:1028F000100E01D0040EA66FB60526E1B1C0E9FFA7
:10290000B2C0EAFF020EE926000EEA22280EEE6EA1
:10291000040EED6EBBDA020E0001B55D06E1B1C03A
:10292000E9FFB2C0EAFF840E0DD0DF5006E1B1C06E
:10293000E9FFB2C0EAFFC80E05D0B1C0E9FFB2C0DE
:10294000EAFF880EEF6E01D005D8E552E552E7CFD9
:10295000D9FF1200D9CFE6FFE1CFD9FF020EE12661
:102960000001B66BB1C0E9FFB2C0EAFFEF6A040E26
:10297000B119146EB2C015F0DE6EB2C0DDFFDECF4D
:10298000E9FFDDCFEAFFEF6ABEAF0CD0C151C21143
:1029900007E005D0C2C0FAFF0001C151F96EFADFAD
:1029A0000001BE9F020EE15C02E2E16AE552E16EC7
:1029B000E552E7CFD9FF120004012051600BE84235
:1029C000E842E842E842E842000901E012002151F1
:1029D0000C0A50E00B0A3FE00C0A31E0010A22E049
:1029E0000B0A1EE0020A1CE0030A18E0080A10E0C5
:1029F000010A0CE00F0A08E0030A01E012000001DE
:102A0000B98F080EA66F1200C1EF15F06CEF18F029
:102A10000001A70EB76F000EB86F0CD018EF16F0BC
:102A20003BEF15F024510001B76FB86BA80EB72724
:102A3000000EB823B981010EBA6FB98F12000001E0
:102A4000B98F04012451EA6AA80FE96E000EEA2248
:102A500022C4EFFF1200000EE66EE66AE66EE66A3A
:102A6000160EE66EE66ACDEC11F0146E060EE15E0F
:102A7000145012001200D9CFE6FFE1CFD9FF040EA7
:102A8000E1260401220510E120511F0B00090CE191
:102A90000001B98F030E0401215D04E10001010E64
:102AA000C56F02D00001C56B0401225160E12051C5
:102AB0001F0B02085CE124510F0B000958E00001D4
:102AC000B98F040124BF0BD024510F0BE96EEA6AC1
:102AD000D890E936EA36AD0EE926000E0AD0245128
:102AE0000F0BE96EEA6AD890E936EA36B10EE926AC
:102AF000000EEA22EECFDEFFEDCFDDFF030E215DFB
:102B000006E1DECFE9FFDDCFEAFF840E2FD02451AE
:102B10000F0B156A700F146E0F0E1522020E14C0E3
:102B2000DBFF030E15C0DBFF020EDBCFE9FF030E58
:102B3000DBCFEAFFEE90ED5224AF0CD0DECFE9FF01
:102B4000DDCFEAFFEF6ADF74DECFE9FFDDCFEAFF1A
:102B5000400E0CD0DECFE9FFDDCFEAFF880EEF6E2E
:102B6000DF74DECFE9FFDDCFEAFFC80EEF6E040EA3
:102B7000E15C02E2E16AE552E16EE552E7CFD9FF9E
:102B80001200800E0401205D52E10001C00EB96FF9
:102B900004012351030A29E0010A09E0030A45E17F
:102BA0000001C40EB76F400EB86F120E38D022511C
:102BB000F66EF76AD890F636F736820EF626410E94
:102BC000F7220900F5CFB7F00A00F5CFB8F0020EF2
:102BD0000001F76AB725F66EB851F7220900F5CF64
:102BE000BAF00A00F5CFBBF01200030E225D1AE224
:102BF0002251F66EF76AD890F636F736840EF6262E
:102C0000410EF7220900F5CFB7F00A00F5CFB8F072
:102C1000B7C0F6FFB8C0F7FF0800F5500001BA6F63
:102C2000BB6B12000001B96B12000001B96B1200FE
:102C3000D9CFE6FFE1CFD9FF020EE1260401286BD0
:102C4000296B20511F0B020A13E0030A0EE0010A50
:102C500037E10001B98F80A402D00401288100016E
:102C6000C5052EE1040128832BD00001B98F28D09F
:102C70000001B98F040124BF0BD024510F0BE96E62
:102C8000EA6AD890E936EA36AD0EE926000E0AD097
:102C900024510F0BE96EEA6AD890E936EA36B10E94
:102CA000E926000EEA22EECFDEFFEDCFDDFFDECF1C
:102CB000E9FFDDCFEAFFEF50040B02E0010E286FC1
:102CC0000001B9AF07D0280EB76F040EB86FB981F5
:102CD000020EBA6F020EE15C02E2E16AE552E16EB9
:102CE000E552E7CFD9FF12006D980001B9BF47D078
:102CF000BEAF26D0020EB66FB1C0E9FFB2C0EAFF88
:102D0000EE52EF6AB1C0E9FFB2C0EAFFC80EEF6E43
:102D1000ABC0E9FFACC0EAFFEE52080EEF6EABC0ED
:102D2000E9FFACC0EAFF020EE926000EEA22280EF7
:102D3000EE6E040EED6EABC0E9FFACC0EAFF7AD0D8
:102D4000ABC0E9FFACC0EAFFEE52080EEF6EABC0BD
:102D5000E9FFACC0EAFF020EE926000EEA22200ECF
:102D6000EE6E040EED6EABC0E9FFACC0EAFF8C0E58
:102D7000EF6EB1C0E9FFB2C0EAFF840E5CD0BEBF07
:102D800084D0040120AF59D00001BA510401265D5E
:102D90000001BB510401275904E226C4BAF027C43C
:102DA000BBF074D80001010EB66FABC0E9FFACC038
:102DB000EAFFEE52080EEF6EABC0E9FFACC0EAFFCF
:102DC000020EE926000EEA22200EEE6E040EED6ED3
:102DD000ABC0E9FFACC0EAFF800EEF6EC76BA9C0C5
:102DE000E9FFAAC0EAFFEE52080EEF6EA9C0E9FFA4
:102DF000AAC0EAFF020EE926000EEA22200EEE6EBD
:102E0000040EED6EA9C0E9FFAAC0EAFF840EEF6EC2
:102E1000010EC76FB1C0E9FFB2C0EAFF020EE9269A
:102E2000000EEA22280EEE6E040EED6EB1C0E9FF30
:102E3000B2C0EAFFC80EEF6E12000001020EB66FBC
:102E4000B1C0E9FFB2C0EAFFEE52EF6AB1C0E9FFDC
:102E5000B2C0EAFFC80EEF6EABC0E9FFACC0EAFF3C
:102E6000EE52080EEF6EABC0E9FFACC0EAFF020EF7
:102E7000E926000EEA22280EEE6E040EED6EABC0BF
:102E8000E9FFACC0EAFFC80EEF6E1200D9CFE6FF33
:102E9000E1CFD9FF020EE1260001080EBA5D000E57
:102EA000BB590DE2BAC0DEFFBBC0DDFFB55102E188
:102EB000010E03D0B50506E1020EB56F03D0080E72
:102EC000DE6EDD6AB1C0E9FFB2C0EAFFEF92B1C0C9
:102ED000E9FFB2C0EAFFEF90B1C0E9FFB2C0EAFF7C
:102EE000010EDB50EF12B1C0E9FFB2C0EAFFEE52B3
:102EF000DFCFEFFF000EDB50BA5F010EDB50BB5B94
:102F0000280EC36F040EC46FB9B120D0D9CFE9FF2A
:102F1000DACFEAFFEE50ED1038E0B7C0F6FFB8C0E8
:102F2000F7FFB72B000EB8230800F550E66EC3C0BC
:102F3000E9FFC4C0EAFFC32B000EC423E552E750EB
:102F4000EF6EDF06010EE2E2DB06E0D7D9CFE9FF44
:102F5000DACFEAFFEE50ED1018E0B7C0E9FFB8C0D5
:102F6000EAFFB72B000EB823EF50E66EC3C0E9FFAF
:102F7000C4C0EAFFC32B000EC423E552E750EF6E36
:102F8000DF06010EE3E2DB06E1D7020EE15C02E2BE
:102F9000E16AE552E16EE552E7CFD9FF1200D9CFE1
:102FA000E6FFE1CFD9FF020EE126A9C0E9FFAAC0E2
:102FB000EAFFEE52EFCFDFFFDFCF14F01450000135
:102FC000BF5D000EC05903E2BFC0DFFF09D0DF5074
:102FD000146E156AE850BF5DBF6F1550C059C06FC1
:102FE000010EDB6ADF50F36E010EDBCFF4FFF3500E
:102FF000F45C16E2010EDB50EA6A280FE96E040E5B
:10300000EA22EF50E66EBCC0E9FFBDC0EAFFBC2B70
:10301000000EBD23E552E750EF6E010EDB2AE2D72A
:10302000000ED880BF55000EC05527E2ABC0E9FFA7
:10303000ACC0EAFFEE52080EEF6EABC0E9FFACC0C9
:10304000EAFF020EE926000EEA22280EEE6E040EBA
:10305000ED6EA9C0E9FFAAC0EAFFEF50400B06E100
:10306000ABC0E9FFACC0EAFFC80E05D0ABC0E9FFBA
:10307000ACC0EAFF880EEF6E25D0ABC0E9FFACC054
:10308000EAFFEE52080EEF6EABC0E9FFACC0EAFFFC
:10309000020EE926000EEA22200EEE6E040EED6E00
:1030A000ABC0E9FFACC0EAFF840EEF6EC151C211A4
:1030B00007E005D0C2C0FAFF0001C151F96EFADF86
:1030C0000001BE9F020EE15C02E2E16AE552E16EA0
:1030D000E552E7CFD9FF12000001B98F000EE66E6E
:1030E000E66AE66A710EE66E0F0EE66EC3EC21F03C
:1030F000146E050EE15E1450010EE66EE66AE66A95
:10310000A80EE66E000EE66EC3EC21F0146E050EFE
:10311000E15E145022C4A7F00401225104E1000131
:10312000100EA66F12000001200EA66F000EE66EB4
:10313000E66AE66EE66A150EE66EE66ACDEC11F01A
:10314000146E060EE15E14501200D9CFE6FFE1CFF7
:10315000D9FF020EE126000EDE6E040EDD6EFD0EBE
:10316000DB50E824166EFE0EDB50040DF3501624DF
:10317000040DF350146E156A020E0F0B05E0D89083
:1031800015321432E806FBE1D89014361536D89083
:1031900014361536D9CFE9FFDACFEAFF1450EE2600
:1031A0001550ED22DECFE9FFDDCFEAFFEF9EFD0EE9
:1031B000DB500AE1FE0EEA6ADB34FE0BEA36E96E0A
:1031C000AD0EE926000E09D0FE0EEA6ADB34FE0BD6
:1031D000EA36E96EB10EE926000EEA22DECFEEFFF6
:1031E000DDCFEDFFDECFE9FFDDCFEAFFEF9CDECFE5
:1031F000E9FFDDCFEAFF040EE926000EEA22EF8C9C
:10320000020EE15C02E2E16AE552E16EE552E7CFCF
:10321000D9FF1200D9CFE6FFE1CFD9FF020EE12698
:10322000FE0EDB50156A700F146E0F0E152214C0BF
:10323000DEFF15C0DDFFDECFE9FFDDCFEAFFFD0ECB
:10324000DBCFEFFFDBA407D0E66AFE0EDBCFE6FFA5
:103250007CDFE552E552FD0EDBA208D0010EE66EE2
:10326000FE0EDBCFE6FF71DFE552E552020EE15CB8
:1032700002E2E16AE552E16EE552E7CFD9FF1200C2
:10328000D9CFE6FFE1CFD9FF020EE126FE0EDB50DB
:1032900020E1ABC0E9FFACC0EAFFEE52080EEF6ED2
:1032A000ABC0E9FFACC0EAFF020EE926000EEA223D
:1032B000200EEE6E040EED6EABC0E9FFACC0EAFF6F
:1032C0008C0EEF6EB1C0E9FFB2C0EAFF840EEF6E64
:1032D0003BD0FD0EDB50E824166EFE0EDB50040DD5
:1032E000F3501624040DF3CF14F0F4CF15F0000EB4
:1032F0001426040E152214C0DEFF15C0DDFF840E57
:10330000DECFE9FFDDCFEAFFE850EF12FD0EDB5024
:10331000E824166EFE0EDB50040DF3501624010F48
:10332000040DF3CF14F0F4CF15F0000E1426040EA4
:10333000152214C0DEFF15C0DDFF840EDECFE9FFCD
:10334000DDCFEAFFE850EF12020EE15C02E2E16A33
:10335000E552E16EE552E7CFD9FF1200D9CFE6FF83
:10336000E1CFD9FF020EE126FD0EDB500AE0FE0E92
:10337000EA6ADB34FE0BEA36E96EB10EE926000E8E
:1033800009D0FE0EEA6ADB34FE0BEA36E96EAD0EBA
:10339000E926000EEA22EECFDEFFEDCFDDFFDECF25
:1033A000E9FFDDCFEAFF020EE926000EEA22FB0E5E
:1033B000DBCFEEFFFC0EDBCFEDFFDECFE9FFDDCF95
:1033C000EAFFEE52FA0EDBCFEFFF400EDECFE9FF51
:1033D000DDCFEAFFE850EF16880EDECFE9FFDDCF44
:1033E000EAFFE850EF12FD0EDB500AE0FE0EEA6A3B
:1033F000DB34FE0BEA36E96EB10EE926000E09D089
:10340000FE0EEA6ADB34FE0BEA36E96EAD0EE92603
:10341000000EEA22EF74DECF14F0DDCF15F014C0F9
:10342000F3FF15C0F4FF020EE15C02E2E16AE5522F
:10343000E16EE552E7CFD9FF1200D9CFE6FFE1CF29
:10344000D9FF010EF36EFC0EDB5004E0D890F3368A
:10345000E806FCE1F31C146EFD0EDBCFE9FFFE0E67
:10346000DBCFEAFF1450EF16E552E7CFD9FF120089
:1034700012000001A65113E16D6A696A160E6F6EA3
:103480009F0E6B6E7B0E696ED08EA28AA08AF28E22
:103490006DB602D06D86FCD70001010EA66F12003A
:1034A000019E08D0019E09AE05D0086C091EE86A8D
:1034B0000922018E09C003F008C002F0136A126AE3
:1034C0008E0E046E056A54EF1CF0016A90EC1CF03D
:1034D000A8EC1CF001B638EF1CF001A205D001BA2F
:1034E00038EF1CF03FEF1CF001BA4BEF1CF001A0CD
:1034F00005D001B838EF1CF04BEF1CF001B83FEFDE
:103500001CF0056A7F0E0A24046EE86A05220F503B
:10351000045EE86A055A1A0E106E0A6A126A136A85
:10352000026A036A0C50075E0D50085A0E50095A81
:10353000000E0A5A09E70C5007260D5008220E50BB
:103540000922000E0A2201D0128AD89007360836C6
:1035500009360A36D8901236133602360336102E44
:10356000E1D7095008100710D8A4128A54EF1CF0B4
:10357000016A90EC1CF0A8EC1CF001B638EF1CF0CE
:1035800001A205D001B838EF1CF03FEF1CF001AAF2
:1035900005D001B038EF1CF03FEF1CF001B002D0B5
:1035A00001A802D04BEF1CF0056A0F500A24046EEC
:1035B000E86A05227E0E045EE86A055A126A136AFA
:1035C000026A036A0E500902F4CF03F0F3CF02F04F
:1035D0000D500902F3501326F4500222000E03226C
:1035E0000E500802F3501326F4500222000E03225C
:1035F0000C500902F3501226F4501322000E02223E
:1036000003220D500802F3501226F4501322000E2C
:10361000022203220E500702F3501226F450132206
:10362000000E022203220C500802F4501226000E53
:103630001322022203220D500702F4501226000E1C
:1036400013220222032254EF1CF00F7E016A90EC39
:103650001CF0A8EC1CF001B638EF1CF001A20AD057
:1036600001AA03D001BE38EF1CF001A444EF1CF006
:1036700041EF1CF001AA05D001AC44EF1CF041EF72
:103680001CF001A00AD001A808D001BE04D001A4FA
:1036900002D04DEF1CF051EF1CF0126A056A0F507A
:1036A0000A5C116E10E307C013F008C002F009C0F5
:1036B00003F00AC010F00CC007F00DC008F00EC0F7
:1036C00009F0013A09D00CC013F00DC002F00EC091
:1036D00003F00FC010F0116C019E01BC018E10C0F0
:1036E00004F001B080EF1CF01A0E116080EF1CF0A6
:1036F000046A0A6A01A408D0076C081E091E0A1E83
:10370000E86A082209220A2201AC08D0136C021EC2
:10371000031E041EE86A022203220422066A1152D2
:1037200007E00A340932083207320632112EF9D77F
:103730000750132608500222095003220A5004227F
:1037400006C012F0019E04AE0BD0126C131E021EB6
:10375000031E041EE86A1322022203220422018EA1
:1037600004A006D0D8800332023213321232102A5B
:1037700010C004F054EF1CF0006A0EAEC5EF1BF051
:103780000D6C0E1EE86A0E22001E09AECDEF1BF076
:10379000086C091EE86A0922001E25EC22F009BE09
:1037A000DDEF1BF000AE000C086C091EE86A092270
:1037B000046C051EE86A0522000C00BED4EF1BF065
:1037C0000188FF0C016A90EC1CF001B6ECEF1BF0D5
:1037D00001A20AD001B403D07F0E096E19D0800E69
:1037E000096E16D0096A14D001B0FCD7870E0A60A2
:1037F000F1D77E0E0A64F6D7860E0A5C04E0D890F4
:1038000009320A2AF9D701A403D0096C09AEEAD714
:103810001200016A90EC1CF001B613EF1CF001A23B
:103820000ED001B405D07F0E096EFF0E086E1FD0BA
:10383000800E096E086A1BD0096A086A18D001B0A8
:10384000FBD78F0E0A60EDD77E0E0A64F5D78E0E79
:103850000A5C05E0D890093208320A2AF8D701A498
:1038600006D0086C091EE86A092209AEE5D71200E5
:103870007F0E0A6EFF0E096E086E076E12007F0E35
:1038800001BEFF0E0A6E02D07F0E0A6E800E096E18
:10389000086A076AF3D701AE04D0800E0A6E096A7F
:1038A000F7D70A6A096AF4D70350021013101210EE
:1038B000F8E005BEF0D703BE0CD004500510EBE0D5
:1038C000D89012361336023603360406D8A0050601
:1038D000F2D70550D4E10428D2E012AE11D07F0E09
:1038E000121402E113A00CD0132AE86A0222032268
:1038F00007E3D880033202321332042A0428BFE0DF
:103900000450C9E013C007F002C008F00334096E88
:1039100004300A6E09320A9E01BE0A8E3EEF1CF088
:1039200009360A3602E30184017E06E101800A6A53
:10393000096A086A076A12000A2803E0D880093277
:103940001200D890093202E10182120001861200B1
:103950000E360F3602E3018C017E06E101880F6A04
:103960000E6A0D6A0C6A12000F2803E0D8800E322E
:0C3970001200D8900E32EAE1018A120029
:04397C000F0EC11257
:10398000959495969598959A959C959E83948396F3
:10399000839E839C838A8388120EE66EF7EC21F067
:1039A000E5528386060EE66EF7EC21F0E55283962B
:1039B000060EE66EF7EC21F0E552060EE66EF7EC29
:1039C00021F0E5528386060EE66EF7EC21F0E55213
:1039D0008396060EE66EF7EC21F0E552060EE66ED3
:1039E000F7EC21F0E5528386060EE66EF7EC21F047
:1039F000E5528396060EE66EF7EC21F0E552839EC3
:103A0000839C838A83988386060EE66EF7EC21F00A
:103A1000E5528396060EE66EF7EC21F0E552280E8D
:103A2000E66E0ED8E552060EE66E0AD8E5520E0E88
:103A3000E66E06D8E552010EE66E02D8E552120097
:103A4000D9CFE6FFE1CFD9FF83948396FE0EDBA8A2
:103A500002D0838801D08398DBAA02D0838A01D068
:103A6000839ADBAC02D0838C01D0839CDBAE02D086
:103A7000838E01D0839E8386060EE66EF7EC21F0DE
:103A8000E5528396060EE66EF7EC21F0E552FE0E47
:103A9000DBA002D0838801D08398DBA202D0838A86
:103AA00001D0839ADBA402D0838C01D0839CDBA657
:103AB00002D0838E01D0839E8386060EE66EF7ECDD
:103AC00021F0E5528396060EE66EF7EC21F0E55202
:103AD000E552E7CFD9FF1200D9CFE6FFE1CFD9FFFA
:103AE00083848396FE0EDBA802D0838801D083985E
:103AF000DBAA02D0838A01D0839ADBAC02D0838C0C
:103B000001D0839CDBAE02D0838E01D0839E83865E
:103B1000060EE66EF7EC21F0E5528396060EE66E91
:103B2000F7EC21F0E552FE0EDBA002D0838801D035
:103B30008398DBA202D0838A01D0839ADBA402D0CF
:103B4000838C01D0839CDBA602D0838E01D0839E20
:103B50008386060EE66EF7EC21F0E5528396060E9C
:103B6000E66EF7EC21F0E552E552E7CFD9FF1200FF
:103B7000D9CFE6FFE1CFD9FF83948396838EFE0EE3
:103B8000DBA802D0838801D08398DBAA02D0838A85
:103B900001D0839ADBAC02D0838C01D0839C8386D6
:103BA000060EE66EF7EC21F0E5528396060EE66E01
:103BB000F7EC21F0E552FE0EDBA002D0838801D0A5
:103BC0008398DBA202D0838A01D0839ADBA402D03F
:103BD000838C01D0839CDBA602D0838E01D0839E90
:103BE0008386060EE66EF7EC21F0E5528396060E0C
:103BF000E66EF7EC21F0E552E552E7CFD9FF12006F
:103C0000D9CFE6FFE1CFD9FFFD0EDBCFE9FFFE0EF6
:103C1000DBCFEAFFEF5010E0FD0EDBCFE9FFFE0E39
:103C2000DBCFEAFFEF50E66E57DFE552FD0EDB2AF1
:103C3000FE0EEAE3DB2AE8D7E552E7CFD9FF120010
:103C4000D9CFE6FFE1CFD9FFFD0EDBCFF6FFFE0EA9
:103C5000DBCFF7FF0800F55011E0FD0EDBCFF6FFDC
:103C6000FE0EDBCFF7FF0800F550E66E35DFE552BC
:103C7000FD0EDB2AFE0EE8E3DB2AE6D7E552E7CFAE
:103C8000D9FF1200D9CFE6FFE1CFD9FF070EE12619
:103C9000D9CFE9FFDACFEAFF200EEE6EEE6AEE6AC8
:103CA000EE6AEE6AEE6AEE6AD9CFE6FFDACFE6FF99
:103CB000FD0EDBCFE6FFFE0EDBCFE6FF61EC1FF073
:103CC000E552E552E552E552D9CFE6FFDACFE6FFFD
:103CD00097DFE552E552070EE15C02E2E16AE55248
:0A3CE000E16EE552E7CFD9FF1200B4
:063CEA00959A9598939A4B
:103CF000939C939E959E959C9396949C9594959653
:103D000093929394949E93909398838A8388818AC4
:103D1000818C818E838E838C8188828C8384818048
:103D200081848186828E818283861200D9CFE6FFCC
:103D3000E1CFD9FF020EE1260A0E146E0E6EFE0EC2
:103D4000DBCF09F057EC22F00550DF6E0A0E146E3F
:103D50000E6EFE0EDBCF09F057EC22F0010E09C00B
:103D6000DBFFFD0EDB50020A09E0030A04E0010A52
:103D700007E1818801D08198838604D0819801D0A1
:103D800081888396010EDB50090A3AE0010A3EE081
:103D90000F0A2EE0010A29E0030A22E0010A1EE0D0
:103DA000070A15E0010A0DE0030A09E0010A2EE105
:103DB000839A8398819A819C819E839E1FD0838A57
:103DC00018D0839A8398818A819C819E05D0839A9A
:103DD0008398819A819C818E838E1ED0838A11D094
:103DE000839A8388819A819C0FD0839A838810D08C
:103DF000839A8398819A818C818E838E838C0DD057
:103E0000839A8398819A818C818E05D0839A839836
:103E1000819A819C819E839E839CDF50090A3AE0AF
:103E2000010A3EE00F0A2EE0010A29E0030A22E01F
:103E3000010A1EE0070A15E0010A0DE0030A09E085
:103E4000010A2EE1829C8394819081948196829EC6
:103E50001FD0828C18D0829C83948180819481961B
:103E600005D0829C8394819081948186828E1ED01D
:103E7000828C11D0829C8384819081940FD0829C0B
:103E8000838410D0829C8394819081848186828EE9
:103E900081820DD0829C839481908184818605D01B
:103EA000829C8394819081948196829E8192020E5D
:103EB000E15C02E2E16AE552E16EE552E7CFD9FF4B
:023EC0001200EE
:0E3EC200D9CFE6FFDACFE6FFFA0EE3CFD9FF45
:103ED000FB0EE3CFDAFFFD0EE35209E72D0EDE6E97
:103EE000FC0EE31EE32AFD0ED8B4E306E31EE65201
:103EF000E652E652FD0EE124E76EFF0EE220E46E8C
:103F0000E652F70EE3CFE6FFF70EE3CFE6FFD1EC84
:103F10001FF0F90EE124E96EFF0EE220EA6EC1EC1B
:103F20001FF00AE1BEEC1FF009E1C1EC1FF008E14F
:103F3000BEEC1FF007E108D0CCEC1FF0C7EC1FF07F
:103F4000CCEC1FF0C7EC1FF0CCEC1FF0DE6AF90ED2
:103F5000E126FF0EE222FF0EE3CFDAFFE552FF0E6D
:103F6000E3CFD9FFE552FC0EE124E96EFF0EE2201B
:103F7000EA6EEECFF3FFEFCFF4FF1200EF380F0B36
:103F80001200EF500F0B02E1EE52D8841200EF380E
:103F90000F0B300FDE6E1200EE500F0B300FDE6E87
:103FA0001200FC0EE3CFE9FFFD0EE3CFEAFF100E97
:103FB000E66EEE6AEE6AEF6AD890FD0EE336FE0E0C
:103FC000E336ED36ED36EF36FF0EE30609E0F2ECB0
:103FD0001FF0EE52F2EC1FF0EE52F2EC1FF0EDD7B4
:103FE000E56E1200030EEF24E8B6EF6E300EEF24FC
:063FF000E8BEEF6E000CBC
:0A3FF600040120511F0B010801E037
:104000001200245101E01200060E215D21E123512E
:10401000230A1BE0010A0CE0030A1AE10001A705CC
:1040200017E10001E80EB76F400EB86F090E09D016
:104030000001A7050DE10001650EB76F410EB86FD5
:104040001D0EBA6FBB6BC00E02D00001800EB96F9F
:1040500004012051600BE842E842E842E842E842AD
:10406000010801E0120021510B0A26E0080A19E0BC
:10407000090A11E0080A05E00B0A23E0080A21E01A
:1040800012000001D60EB76F000EB86F010EBA6FA6
:10409000BB6BC10E0FD00001800EB96F23C4D6F0E8
:1040A00012000001D70EB76F000EB86F010EBA6F85
:1040B000BB6B810EB96F12000001800EB96F22C474
:0440C000D7F0120023
:0C40C4001201000200000008D8043F00B8
:1040D00002000102000109022900010100C03209A9
:1040E0000400000203000000092111010001221D4B
:1040F000000705810340000107050103400001049A
:1041000003090434034D006900630072006F00630B
:1041100000680069007000200054006500630068BA
:10412000006E006F006C006F00670079002000498E
:10413000006E0063002E002E03530069006D0070B6
:10414000006C006500200048004900440020004445
:10415000006500760069006300650020004400658A
:10416000006D006F000600FF0901A101190129403F
:10417000150026FF0075089540810019012940911E
:0A41800000C0D640FF400341374164
:06418A002A0EF66E100E75
:10419000F76E000EF86E00010900F550D16F0900AE
:1041A000F550D26F03E1D16701D03DD00900F55041
:1041B000CC6F0900F550CD6F0900F550CE6F0900A6
:1041C0000900F550E96E0900F550EA6E0900090092
:1041D0000900F550CF6F0900F550D06F09000900B4
:1041E000F6CFD3F0F7CFD4F0F8CFD5F0CCC0F6FFB0
:1041F000CDC0F7FFCEC0F8FF0001CF5302E1D0538E
:1042000007E00900F550EE6ECF07F8E2D007F9D7C6
:10421000D3C0F6FFD4C0F7FFD5C0F8FF0001D10727
:08422000000ED25BBFD71200B3
:08422800D9CFE6FFDACFE6FF73
:10423000E1CFD9FFE2CFDAFFC26AC06AFC0EDB40F1
:104240007F0B3C0BC26EFB0EDBCFE6FFFC0EDB38B8
:10425000F00B300BE552E710C16EFD0EDB50040D84
:10426000F350380B156EFD0EDB380F0B070B146E79
:10427000FD0EDB50800B14101510C06EFC0EDBAE73
:1042800003D09E9C9D8CF28CC280E552E5CFDAFF74
:06429000E7CFD9FF120088
:0A429600D9CFE6FFDACFE6FFE1CF53
:1042A000D9FFE2CFDAFFFF0EE76EFC0EDBCF14F092
:1042B000E75014161450A96EFB0EDB50A86EA69E94
:1042C000A69CA684F29E550EA76EAA0EA76EA68285
:1042D000F28EA694E552E5CFDAFFE7CFD9FF1200C0
:1042E000D9CFE6FFDACFE6FFE1CFD9FFE2CFDAFFA1
:1042F000E652E652FC0EDBCFDEFFDBCFDDFF010E28
:10430000DB50D76EDF50D66EE552E552E552E5CF71
:08431000DAFFE7CFD9FF12002C
:08431800D9CFE6FFDACFE6FF82
:10432000E1CFD9FFE2CFDAFFFD0EDB507F0BD56E78
:10433000D76AD66AF294FD0EDBAE02D0F28A01D0C3
:10434000F29AD58EE552E5CFDAFFE7CFD9FF12001A
:10435000D9CFE6FFDACFE6FFE1CFD9FFE2CFDAFF30
:10436000FF0EE76EFC0EDBCF14F0E750141614506E
:10437000A96EA69CA69EA680A850E552E5CFDAFFBE
:06438000E7CFD9FF120097
:0A438600FE0EE3CFE9FFFF0EE3CFC8
:10439000EAFFE9CFF3FFEACFF4FFFB0EE35003E1BE
:1043A000FC0EE35009E0FB0EE30602E2FC0EE3061E
:0A43B000FD0EE350EE6EF1D712008F
:0643BA00504F543A00567A
:1043C000002E00430054454D503A0053454D2049BE
:1043D0004E544552464143452020200054455354F5
:0D43E0004520646F204B4954202020200010
:0243EE00FF0EC0
:1043F000E350216EEF0E01D0F30EE76EE72EFEEFD5
:1044000021F00C0E206EE76AE72E04EF22F0202E3A
:0C44100003EF22F0212EFCEF21F012003F
:04441C00D9CFE6FF0F
:10442000DACFE6FFE1CFD9FFE2CFDAFFC30EC21445
:10443000146EFD0EDB407F0B3C0B1410C26EE55278
:0A444000E5CFDAFFE7CFD9FF120045
:06444A00056A046A100E71
:10445000E76ED89008360936043605360D50045CF0
:104460000E50055805E30D50045E0E50055A082AFB
:06447000E72EF0D7120058
:0A44760013EE00F023EE00F0F86AE8
:10448000019CC5EC20F07FEC22F03AEC0BF0FBD75E
:02449000120018
:0E449200FF0EE350216E1B0E00D001D0200E55
:0E44A000E76EE72EFED7212EFAD700D01200CD
:0244AE00056A9D
:1044B000080EE76ED890093605360E50055C02E30B
:0A44C000056E092AE72EF7D7120057
:0644CA00C450176E166AD3
:0C44D000C3501610F36E17C0F4FF12006A
:0444DC0000EE00F0FE
:0A44E0000F0EEE6AEA62FDD712002B
:0644EA00C250020B01E0CC
:0444F000010E1200A7
:0644F400A6B2FED7120083
:0444FA00C282120068
:0244FE001200AA
:1045000000000000010101000000000000000000A8
:10451000000000000000000000000000000000009B
:10452000000000000000000000000000000000008B
:10453000000000000000000000000000000000007B
:064540000A28A03B000068
:00000001FF
