:020000040000FA
:06000000FDEF0FF01200FD
:06100000FDEF0FF01200ED
:02102A000000C4
:04102C000F0EC112D0
:10103000959495969598959A959C959E8C948C965A
:101040008C9E8C9C8C8A8C88060EE66EC6EC0FF00B
:10105000E552060EE66EC6EC0FF0E552060EE66EA1
:10106000C6EC0FF0E5528C860C0EE66EDDEC0FF050
:10107000E5528C960C0EE66EDDEC0FF0E552060E96
:10108000E66EC6EC0FF0E5528C860C0EE66EDDECDB
:101090000FF0E5528C960C0EE66EDDEC0FF0E5528B
:1010A000060EE66EC6EC0FF0E5528C860C0EE66E70
:1010B000DDEC0FF0E5528C960C0EE66EDDEC0FF0D9
:1010C000E5528C9E8C9C8C8A8C988C860C0EE66EDD
:1010D000DDEC0FF0E5528C960C0EE66EDDEC0FF0B9
:1010E000E552280EE66E0ED8E552060EE66E0AD8D8
:1010F000E5520E0EE66E06D8E552010EE66E02D8F7
:10110000E5521200D9CFE6FFE1CFD9FF8C948C963F
:10111000FE0EDBA802D08C8801D08C98DBAA02D00E
:101120008C8A01D08C9ADBAC02D08C8C01D08C9C48
:10113000DBAE02D08C8E01D08C9E8C860C0EE66EBF
:10114000DDEC0FF0E5528C960C0EE66EDDEC0FF048
:10115000E552FE0EDBA002D08C8801D08C98DBA279
:1011600002D08C8A01D08C9ADBA402D08C8C01D066
:101170008C9CDBA602D08C8E01D08C9E8C860C0EB3
:10118000E66EDDEC0FF0E5528C960C0EE66EDDECB3
:101190000FF0E552FE0EDB0408E0FE0EDB50020805
:1011A00004E0FE0EDB50030805E10C0EE66EDDECFC
:1011B0000FF0E552E552E7CFD9FF1200D9CFE6FF95
:1011C000E1CFD9FF8C948C968C8EFE0EDBA802D0DA
:1011D0008C8801D08C98DBAA02D08C8A01D08C9AA2
:1011E000DBAC02D08C8C01D08C9C8C860C0EE66E15
:1011F000DDEC0FF0E5528C960C0EE66EDDEC0FF098
:10120000E552FE0EDBA002D08C8801D08C98DBA2C8
:1012100002D08C8A01D08C9ADBA402D08C8C01D0B5
:101220008C9CDBA602D08C8E01D08C9E8C860C0E02
:10123000E66EDDEC0FF0E5528C960C0EE66EDDEC02
:101240000FF0E552E552E7CFD9FF1200D9CFE6FF04
:10125000E1CFD9FFE652DF6AFD0EDB06000EF36E2A
:10126000FD0EDBCFF4FFF350F45C20E3FE0EDB5009
:10127000040A13E0070A0DE0010A07E0030A02E08E
:10128000DF6A15D0FD0EDB500BD0FD0EDB50400F9A
:1012900007D0FD0EDB50140F03D0FD0EDB50540FB2
:1012A000DF6EDFCFE6FF8ADFE55201D0DF6AE5526D
:1012B000E552E7CFD9FF1200D9CFE6FFE1CFD9FF42
:1012C0008C848C96FE0EDBA802D08C8801D08C9882
:1012D000DBAA02D08C8A01D08C9ADBAC02D08C8C39
:1012E00001D08C9CDBAE02D08C8E01D08C9E8C8683
:1012F0000C0EE66EDDEC0FF0E5528C960C0EE66EF1
:10130000DDEC0FF0E552FE0EDBA002D08C8801D0A0
:101310008C98DBA202D08C8A01D08C9ADBA402D0FC
:101320008C8C01D08C9CDBA602D08C8E01D08C9E44
:101330008C860C0EE66EDDEC0FF0E5528C960C0EF2
:10134000E66EDDEC0FF0E552E552E7CFD9FF120073
:10135000D9CFE6FFE1CFD9FF070EE126D9CFE9FFCC
:10136000DACFEAFF200EEE6EEE6A3E0EEE6EEE6E05
:10137000EE6EEE6EEE6ED9CFE6FFDACFE6FFFD0E33
:10138000DBCFE6FFFE0EDBCFE6FFAAEC0EF0E55268
:10139000E552E552E552D9CFE6FFDACFE6FF42D972
:1013A000E552E552070EE15C02E2E16AE552E16EC8
:1013B000E552E7CFD9FF1200D9CFE6FFE1CFD9FF41
:1013C000070EE126DE6ADD6A020EDB6A030EDB6AC7
:1013D000040EDB6A050EDB6AFB0EDBCF05F0FC0EAC
:1013E000DBCF06F0FD0EDBCF07F0FE0EDBCF08F003
:1013F000CCEC0CF006C0DEFF07C0DDFFDECFE6FF61
:10140000DDCFE6FFA5DFE552E552FA0EDBCF14F0A3
:10141000000EE76E1418E8AE02D0143403D0E75083
:10142000D880145401E3F4D02E0EE66E45DFE55269
:10143000FB0EDBCF14F0FC0EDBCF15F0FD0EDBCF87
:1014400016F0FE0EDBCF17F0000EDFCF06F0010E18
:10145000DBCF07F0B5EC0BF005C018F006C019F0B3
:1014600007C01AF008C01BF005C00AF006C00BF058
:1014700007C00CF008C00DF014C005F015C006F050
:1014800016C007F017C008F035EC0CF0020E05C0CE
:10149000DBFF030E06C0DBFF040E07C0DBFF050EFB
:1014A00008C0DBFFD950020FE96EDACFEAFFEECFBA
:1014B000E6FFEECFE6FFEECFE6FFEFCFE6FF93ECE1
:1014C0000FF0E552E552E552E552020E04C0DBFF93
:1014D000030E05C0DBFF040E06C0DBFF050E07C0D0
:1014E000DBFFFA0EDBCF14F0040EE76E1418E8AE43
:1014F00002D0143403D0E750D880145405E2040E0F
:10150000F36EFA0EF3CFDBFFFA0EDB50E76E060E3A
:10151000E7CFDBFFDBCF14F0000EE76E1418E8AE68
:1015200002D0143403D0E750D880145458E2146A1F
:10153000156A200E166E410E176ED950020FE96E15
:10154000DACFEAFFEECF05F0EECF06F0EECF07F0F0
:10155000EFCF08F014C00AF015C00BF016C00CF065
:1015600017C00DF0C8EC0BF008C0EDFF07C0EDFF91
:1015700006C0EDFF05C0EFFF020EDBCF14F0030E37
:10158000DBCF15F0040EDBCF16F0050EDBCF17F026
:101590000A6A0B6A800E0C6E3F0E0D6E14C005F0C9
:1015A00015C006F016C007F017C008F0FBEC0CF0F1
:1015B000010A12E1060EDBCF18F0010EE76E1818D3
:1015C000E8AE02D0183403D0E750D880185404E2B3
:1015D000300EE66E71DEE552060EDB069BD7020E7C
:1015E000DBCF05F0030EDBCF06F0040EDBCF07F0F8
:1015F000050EDBCF08F0CCEC0CF006C014F007C0F1
:1016000015F006C0E6FF07C0E6FFA2DEE552E55290
:10161000070EE15C02E2E16AE552E16EE552E7CFD6
:10162000D9FF1200D9CFE6FFE1CFD9FFFD0EDBCF06
:10163000E9FFFE0EDBCFEAFFEF5010E0FD0EDBCF3F
:10164000E9FFFE0EDBCFEAFFEF50E66E35DEE55236
:10165000FD0EDB2AFE0EEAE3DB2AE8D7E552E7CFF0
:10166000D9FF1200D9CFE6FFE1CFD9FFFD0EDBCFC6
:10167000F6FFFE0EDBCFF7FF0800F55011E0FD0E80
:10168000DBCFF6FFFE0EDBCFF7FF0800F550E66E6E
:1016900013DEE552FD0EDB2AFE0EE8E3DB2AE6D779
:1016A000E552E7CFD9FF1200D9CFE6FFE1CFD9FF4E
:1016B000020EE126010EDB6AFE0EDB50070BE76E21
:1016C000FE0EE7CFDBFFDB50070A1CE0010A18E043
:1016D000030A14E0010A10E0070A0CE0010A08E01E
:1016E000030A04E0010A10E1400E0FD0480E0DD0AD
:1016F000500E0BD0580E09D0600E07D0680E05D0E2
:10170000700E03D0780E01D0400EDF6EDFCFE6FF03
:10171000F9DCE552010EDB6A080EF36E010EDBCF39
:10172000F4FFF350F45C12E2FC0EDBCFE9FFFD0E98
:10173000DBCFEAFFEF50E66EBFDDE552FC0EDB2AA1
:10174000FD0E01E3DB2A010EDB2AE6D7E66A36DD71
:10175000E552020EE15C02E2E16AE552E16EE55219
:06176000E7CFD9FF1200E3
:0A1766000F9E08D00F9E07AE05D0BD
:10177000066C071EE86A07220F8E07C001F006C03C
:1017800000F0136A126A8E0E026E036A75EF0DF096
:101790000F6AB1EC0DF0C9EC0DF00FB659EF0DF07A
:1017A0000FA205D00FB859EF0DF060EF0DF00FAAA2
:1017B00005D00FB059EF0DF060EF0DF00FB002D073
:1017C0000FA802D06CEF0DF0036A0D500824026ED2
:1017D000E86A03227E0E025EE86A035A126A136AFE
:1017E000006A016A0C500702F4CF01F0F3CF00F059
:1017F0000B500702F3501326F4500022000E012272
:101800000C500602F3501326F4500022000E012261
:101810000A500702F3501226F4501322000E002241
:1018200001220B500602F3501226F4501322000E30
:10183000002201220C500502F3501226F45013220C
:10184000000E002201220A500602F4501226000E59
:101850001322002201220B500502F4501226000E22
:1018600013220022012275EF0DF00D7E0F6AB1ECFC
:101870000DF0C9EC0DF00FB659EF0DF00FA20AD024
:101880000FAA03D00FBE59EF0DF00FA465EF0DF0B6
:1018900062EF0DF00FAA05D00FAC65EF0DF062EF0F
:1018A0000DF00FA00AD00FA808D00FBE04D00FA4CF
:1018B00002D06EEF0DF072EF0DF0126A036A0D5058
:1018C000085C116E10E305C013F006C000F007C0FD
:1018D00001F008C010F00AC005F00BC006F00CC003
:1018E00007F00F3A09D00AC013F00BC000F00CC08B
:1018F00001F00DC010F0116C0F9E0FBC0F8E10C0C8
:1019000002F00FB0A1EF0DF01A0E1160A1EF0DF073
:10191000026A086A0FA408D0056C061E071E081E7E
:10192000E86A0622072208220FAC08D0136C001EBA
:10193000011E021EE86A002201220222046A1152DC
:1019400007E008340732063205320432112EF9D787
:10195000055013260650002207500122085002228B
:1019600004C012F00F9E02AE0BD0126C131E001EAC
:10197000011E021EE86A13220022012202220F8E9B
:1019800002A006D0D8800132003213321232102A5F
:1019900010C002F075EF0DF00F6AB1EC0DF00FB64C
:1019A000D6EF0CF00FA20ED00FB405D07F0E076E4D
:1019B000FF0E066E1FD0800E076E066A1BD0076AE8
:1019C000066A18D00FB0FBD78F0E0860EDD77E0ED9
:1019D0000864F5D78E0E085C05E0D8900732063211
:1019E000082AF8D70FA406D0066C071EE86A07225B
:1019F00007AEE5D7120004EC0DF00FB6000C0FB0E7
:101A0000000C0FA4000C010C0F6AB1EC0DF0C9EC36
:101A10000DF00FB612000FAE08D00FA004D00FA823
:101A200002D00F8012000F9012000D50085C0BE1E5
:101A30000C50075C08E10B50065C05E10A50055CA0
:101A400002E10F801200D8A002D00F8E10D00850F3
:101A50000DC008F00D6E07500CC007F00C6E06505C
:101A60000BC006F00B6E05500AC005F00A6E0D5053
:101A7000085C10E0FF0F09E00F900FB403D00FAE29
:101A80000F8412000FAE0F9412000D2AD8900C3262
:101A90000B320A320A50055E0B50065A0C50075A98
:101AA00007BEEAD7D890053606360736082EF8D78F
:101AB000C8D77F0E086EFF0E076E066E056E120009
:101AC0007F0E0FBEFF0E086E02D07F0E086E800ED6
:101AD000076E066A056AF3D70FAE04D0800E086E53
:101AE000076AF7D7086A076AF4D701500010131085
:101AF0001210F8E003BEF0D701BE0CD00250031064
:101B0000EBE0D89012361336003601360206D8A024
:101B10000306F2D70350D4E10228D2E012AE11D06E
:101B20007F0E121402E113A00CD0132AE86A0022DF
:101B3000012207E3D880013200321332022A022840
:101B4000BFE00250C9E013C005F000C006F0013448
:101B5000076E0230086E0732089E0FBE088E5FEFD8
:101B60000DF00736083602E30F840F7E06E10F8082
:101B7000086A076A066A056A1200082803E0D88026
:101B800007321200D890073202E10F8212000F864E
:101B900012000C360D3602E30F8C0F7E06E10F8823
:101BA0000D6A0C6A0B6A0A6A12000D2803E0D880DD
:0E1BB0000C321200D8900C32EAE10F8A1200BB
:021BBE00B9D894
:101BC0008B948C908C928B928B90010EE66EE66ECD
:101BD00026EC09F0E552E5520001200E6A6FE66E30
:101BE0005CEC09F0E552100EE66E82EC08F0E5526E
:101BF0000001610E6A6F6B6B84A219D000016BB19A
:101C00001AD0010E6B116B6F6AC0E6FF5CEC09F035
:101C1000E552100EE66E82EC08F0E5527A0E0001F5
:101C20006A5D03E1610E6A6F06D06A2B04D0760EFE
:101C300000016B156B6F84A40ED06BB30FD0020E36
:101C40006B116B6F140EE66E82EC08F0E55200012A
:101C5000610E6A6F03D0750E6B156B6F81B80ED075
:101C60006BB50FD0040E6B116B6F100EE66E82EC2D
:101C700008F0E5520001610E6A6F03D0730E6B1518
:101C80006B6F8150100B100A01E0010E146E84502E
:101C9000040B01E0010E141413E06BBD14D0400ED0
:101CA0006B116B6F010EE66E82EC08F0E552020ECE
:101CB000E66E82EC08F0E5520001610E6A6F03D017
:101CC000370E6B156B6F8450040B01E0010E146E20
:101CD0008450020B01E0010E14140BE06BB90CD020
:101CE000100E6B116B6F1C0EE66E82EC08F0E55265
:101CF00003D0670E6B156B6F8150100B100A01E05B
:101D0000010E146E8450020B01E0010E14140CE05D
:101D100000016BBB71D7200E6B116B6F180EE66E56
:101D200082EC08F0E55268D7570E00016B156B6F17
:101D300063D70F0EC110C16E9494959095929492B2
:101D400094909282928492869288968296849388C6
:041D500016EF08F092
:0C1D5400D9CFE6FFDACFE6FFFA0EE3CFAE
:101D6000D9FFFB0EE3CFDAFFFD0EE35209E72D0E9C
:101D7000DE6EFC0EE31EE32AFD0ED8B4E306E31E7E
:101D8000E652E652E652FD0EE124E76EFF0EE22037
:101D9000E46EE652F70EE3CFE6FFF70EE3CFE6FF81
:101DA0001AEC0FF0F90EE124E96EFF0EE220EA6E64
:101DB0000AEC0FF00AE107EC0FF009E10AEC0FF072
:101DC00008E107EC0FF007E108D015EC0FF010EC7C
:101DD0000FF015EC0FF010EC0FF015EC0FF0DE6AC1
:101DE000F90EE126FF0EE222FF0EE3CFDAFFE55205
:101DF000FF0EE3CFD9FFE552FC0EE124E96EFF0EA2
:101E0000E220EA6EEECFF3FFEFCFF4FF1200EF38DF
:101E10000F0B1200EF500F0B02E1EE52D8841200AC
:101E2000EF380F0B300FDE6E1200EE500F0B300F3D
:101E3000DE6E1200FC0EE3CFE9FFFD0EE3CFEAFFFA
:101E4000100EE66EEE6AEE6AEF6AD890FD0EE3368B
:101E5000FE0EE336ED36ED36EF36FF0EE30609E013
:101E60003BEC0FF0EE523BEC0FF0EE523BEC0FF080
:101E7000EDD7E56E1200030EEF24E8B6EF6E300EDC
:081E8000EF24E8BEEF6E000C38
:081E88002A0EF66E100EF76E33
:101E9000000EF86E00010900F550656F0900F5505D
:101EA000666F03E1656701D03DD00900F550606FB2
:101EB0000900F550616F0900F550626F09000900D3
:101EC000F550E96E0900F550EA6E090009000900B5
:101ED000F550636F0900F550646F09000900F6CFF3
:101EE00067F0F7CF68F0F8CF69F060C0F6FF61C027
:101EF000F7FF62C0F8FF0001635302E1645307E09B
:101F00000900F550EE6E6307F8E26407F9D767C081
:101F1000F6FF68C0F7FF69C0F8FF00016507000E13
:061F2000665BBFD7120052
:0A1F2600D9CFE6FFDACFE6FFE1CFE6
:101F3000D9FFE2CFDAFFE652E652D950FD0F146E18
:101F4000FF0EDA2014C0DEFFDD6EDECFE9FFDDCF4D
:101F5000EAFFEF9EFA0EDBCF14F0FB0EDBCF15F09D
:101F6000FC0EDBCF16F0FD0EDBCF17F014C004F033
:101F700015C005F016C006F017C007F0E552E5528F
:0C1F8000E552E5CFDAFFE7CFD9FF1200F1
:041F8C00FF0EE35011
:101F90001D6EEF0E01D0F30EE76EE72ECDEF0FF0C2
:101FA0000C0E1C6EE76AE72ED3EF0FF01C2ED2EF5B
:0A1FB0000FF01D2ECBEF0FF0120012
:061FBA00FF0EE3501D6E56
:101FC000480E01D04C0EE76EE72EFED7E76AE72EEB
:0A1FD000FED71D2EF7D70000120007
:061FDA00000EF36E00EEA4
:101FE00000F0080E01D81200EA6002D0EE6AFCD7B9
:0A1FF000F350E9601200EE6AFCD71E
:061FFA0013EE00F023EEDF
:1020000000F0F86A0F9C44EC0FF00BEC10F0DFECE2
:062010000DF0FBD71200E9
:022016001200B6
:00000001FF
