:020000040000FA
:060000009BEF0AF0120064
:061000009BEF0AF0120054
:061008005CEF09F012008C
:0610180075EF09F0120063
:06102A000100701500003A
:081030006A000000010000004D
:081038000F0EC112959A959864
:10104000939A939C939E959E959C9398949C95942B
:10105000939093949396949E939295968C8A8C8871
:101060008A8A8A8C8A8E8C8E8C8C8A888B8C8C84D3
:101070008A808A848A868B8E8A828C861200D9CF57
:10108000E6FFE1CFD9FF020EE1260A0E126E0C6ECA
:10109000FE0EDBCF07F0A9EC0AF00350DF6E0A0E5C
:1010A000126E0C6EFE0EDBCF07F0A9EC0AF0010EFB
:1010B00007C0DBFFFD0EDB50030A0CE0010A08E06D
:1010C000030A04E0010A09E18A8808D08A8803D06B
:1010D0008A9804D08A988C9602D08A888C86FE0ED4
:1010E000DB50630804E2140EDF6EDE52DD6E010E8B
:1010F000DB50090A3EE0010A36E00F0A2CE0010A43
:1011000027E0030A20E0010A1CE0070A15E0010AB3
:101110000DE0030A09E0010A33E18C9A8C988A9A5F
:101120008A9C8A9E8C9E1DD08C8A16D08C9A8C9814
:101130008A8A8A9C8A9E29D08C9A8C988A9A8A9CC0
:1011400023D08C8A17D08C9A8C888A9A8A9C15D046
:101150008C9A8C880AD08C9A8C988A9A8A8C8A8EDF
:101160008C8E8C8C14D08C9A8C988A9A8A9C8A9EAD
:1011700005D08C9A8C988A9A8A8C8A8E8C9E06D0FE
:101180008C8A8C888A8A8A8C8A8E8C8E8C9CDF5082
:10119000090A3EE0010A36E00F0A2CE0010A27E0C6
:1011A000030A20E0010A1CE0070A15E0010A0DE02D
:1011B000030A09E0010A33E18B9C8C948A908A949B
:1011C0008A968B9E1DD08B8C16D08B9C8C948A809B
:1011D0008A948A9629D08B9C8C948A908A9423D066
:1011E0008B8C17D08B9C8C848A908A9415D08B9C86
:1011F0008C840AD08B9C8C948A908A848A868B8E6D
:101200008A8214D08B9C8C948A908A948A9605D07A
:101210008B9C8C948A908A848A868B9E06D08B8C39
:101220008C848A808A848A868B8E8A92020EE15C04
:1012300002E2E16AE552E16EE552E7CFD9FF120022
:101240000FD88B948C908C928B928B90F28EF28C28
:10125000E66A6AC0E6FF3FEC08F0E552E552F8D7CF
:101260000F0EC110C16E94949590959294929490A3
:1012700092829284928692889682968493881CECBD
:1012800008F093880ED8940EE66E58EC0AF0E552FA
:10129000840EE66E6D0EE66E3CEC0AF0E552E55209
:1012A0001200D08EF29EF29CF286F290F190F18EB6
:1012B000F184F28AF2941200DACFE4FFE652F2A44B
:1012C00010D08B74630E0001E76E6A19E8AE02D08D
:1012D000E73402D0E7506A5D02E26A2B01D06A6B04
:1012E000F294E552E5CFDAFF1100D8CFE4FFE0CF6A
:1012F000E4FFE46EDACFE4FFE2CFDAFFE9CFE4FF08
:10130000EACFE4FFF6CFE4FFF7CFE4FFF5CFE4FF49
:10131000F3CFE4FFF4CFE4FFFACFE4FF00EE00F0F8
:10132000100EE80403E3EECFE4FFFBD700EE12F06B
:10133000010EE80403E3EECFE4FFFBD7E652D9CF7A
:10134000E6FFE1CFD9FFE652F2A005D031D88150B7
:10135000DF6E8C70F290E552E552E7CFD9FFE5528F
:1013600000EE12F0010EE80403E3E5CFEDFFFBD73A
:1013700000EE0FF0100EE80403E3E5CFEDFFFBD71E
:10138000E5CFFAFFE5CFF4FFE5CFF3FFE5CFF5FFBB
:10139000E5CFF7FFE5CFF6FFE5CFEAFFE5CFE9FFC1
:1013A000E5CFDAFFE550E5CFE0FFE5CFD8FF10004D
:1013B0008B928B82640EE66E74EC0AF0E5528B928F
:1013C000640EE66E74EC0AF0E5528B82640EE66EF3
:0A13D00074EC0AF0E5528B92120053
:0613DA002A0EF66E100E53
:1013E000F76E000EF86E00010900F550656F0900F8
:1013F000F550666F03E1656701D03DD00900F550F7
:10140000606F0900F550616F0900F550626F0900C7
:101410000900F550E96E0900F550EA6E090009006F
:101420000900F550636F0900F550646F0900090069
:10143000F6CF67F0F7CF68F0F8CF69F060C0F6FF3D
:1014400061C0F7FF62C0F8FF0001635302E164531B
:1014500007E00900F550EE6E6307F8E26407F9D77C
:1014600067C0F6FF68C0F7FF69C0F8FF00016507B5
:08147000000E665BBFD71200FD
:08147800D9CFE6FFDACFE6FF51
:10148000E1CFD9FFE2CFDAFFE652E652FC0EDBCF26
:10149000DEFFDBCFDDFF010EDB50D76EDF50D66EF7
:1014A000E552E552E552E5CFDAFFE7CFD9FF12006A
:1014B000D9CFE6FFDACFE6FFE1CFD9FFE2CFDAFFFF
:1014C000FD0EDB507F0BD56ED76AD66AF294FD0E07
:1014D000DBAE02D0F28A01D0F29AD58EE552E5CF8A
:0814E000DAFFE7CFD9FF12008B
:0814E800FF0EE350116EEF0E40
:1014F00001D0F30EE76EE72E7BEF0AF00C0E106EB4
:10150000E76AE72E81EF0AF0102E80EF0AF0112E25
:0615100079EF0AF0120061
:0A151600000EF36E00EE00F0080E68
:1015200001D81200EA6002D0EE6AFCD7F350E960FD
:061530001200EE6AFCD778
:0A15360013EE00F023EE00F0F86A57
:101540000F9CEDEC09F0B7EC0AF020EC09F0FBD7AA
:02155000120087
:0E155200036A080EE76ED890073603360C5079
:0E156000035C02E3036E072AE72EF7D71200A2
:02156E00120069
:01157000007A
:00000001FF
