:020000040000FA
:06000000B5EF09F012004B
:06100000B5EF09F012003B
:02102A000000C4
:04102C000F0EC112D0
:10103000959A9598939A939C939E959E959C939838
:10104000949C9594939093949396949E9392959652
:101050008C8A8C888A8A8A8C8A8E8C8E8C8C8A88E0
:101060008B8C8C848A808A848A868B8E8A828C86FA
:101070001200D9CFE6FFE1CFD9FF020EE1260A0E1A
:10108000106E0C6EFE0EDBCF07F0C3EC09F00350C0
:10109000DF6E0A0E106E0C6EFE0EDBCF07F0C3EC97
:1010A00009F0010E07C0DBFFFD0EDB50030A0CE068
:1010B000010A08E0030A04E0010A09E18A8808D06D
:1010C0008A8803D08A9804D08A988C9602D08A881D
:1010D0008C86FE0EDB50630804E2140EDF6EDE52D7
:1010E000DD6E010EDB50090A3EE0010A36E00F0A10
:1010F0002CE0010A27E0030A20E0010A1CE0070AAD
:1011000015E0010A0DE0030A09E0010A33E18C9AB7
:101110008C988A9A8A9C8A9E8C9E1DD08C8A16D026
:101120008C9A8C988A8A8A9C8A9E29D08C9A8C98D0
:101130008A9A8A9C23D08C8A17D08C9A8C888A9A17
:101140008A9C15D08C9A8C880AD08C9A8C988A9A12
:101150008A8C8A8E8C8E8C8C14D08C9A8C988A9ADD
:101160008A9C8A9E05D08C9A8C988A9A8A8C8A8EC0
:101170008C9E06D08C8A8C888A8A8A8C8A8E8C8EE9
:101180008C9CDF50090A3EE0010A36E00F0A2CE091
:10119000010A27E0030A20E0010A1CE0070A15E023
:1011A000010A0DE0030A09E0010A33E18B9C8C94EB
:1011B0008A908A948A968B9E1DD08B8C16D08B9C9D
:1011C0008C948A808A948A9629D08B9C8C948A905D
:1011D0008A9423D08B8C17D08B9C8C848A908A9491
:1011E00015D08B9C8C840AD08B9C8C948A908A849A
:1011F0008A868B8E8A8214D08B9C8C948A908A9457
:101200008A9605D08B9C8C948A908A848A868B9E41
:1012100006D08B8C8C848A808A848A868B8E8A9274
:10122000020EE15C02E2E16AE552E16EE552E7CFCF
:04123000D9FF1200D0
:0C1234002A0EF66E100EF76E000EF86E1B
:1012400000010900F550656F0900F550666F03E174
:10125000656701D03DD00900F550606F0900F55079
:10126000616F0900F550626F09000900F550E96EE1
:101270000900F550EA6E090009000900F550636F96
:101280000900F550646F09000900F6CF67F0F7CF49
:1012900068F0F8CF69F060C0F6FF61C0F7FF62C088
:1012A000F8FF0001635302E1645307E00900F550C1
:1012B000EE6E6307F8E26407F9D767C0F6FF68C00F
:1012C000F7FF69C0F8FF00016507000E665BBFD736
:0212D00012000A
:0E12D2002AD88B948C908C928B928B9000017A
:1012E0006A6B6B6B84A207D000016BB108D06A2BCC
:1012F000010E6B1103D0020E00016B156B6F84A4FD
:1013000006D06BB307D06A07020E6B1102D0010E34
:101310006B156B6F81A86A6BE66A6AC0E6FF39ECF1
:1013200008F0E552E552DED70F0EC110C16E94945D
:1013300095909592949294909282928492869288BB
:0A13400096829684938816EF08F059
:06134A00000EF36E00EE40
:1013500000F0080E01D81200EA6002D0EE6AFCD755
:0A136000F350E9601200EE6AFCD7BA
:06136A0013EE00F023EE7B
:1013700000F0F86A0F9C1AEC09F0D1EC09F069EC66
:0613800009F0FBD712008A
:0A138600036A080EE76ED8900736E0
:1013900003360C50035C02E3036E072AE72EF7D7EF
:0213A000120039
:0213A200120037
:00000001FF
